:100000000C942A000C9475080C94A8080C94DB0836
:100010000C943C040C9447000C9447000C94090485
:100020000C9447000C9447000C94D6030C94BF0426
:100030000C9447000C9447000C9447000C94470024
:100040000C9447000C9447000C9447000C94470014
:100050000C94470011241FBECFE5D8E0DEBFCDBF12
:1000600010E0A0E6B0E0E4EDF7E302C005900D92E9
:10007000AE36B107D9F713E0AEE6B0E001C01D928D
:10008000AC33B107E1F70E949E1B0C94E81B0C9463
:100090000000DF93CF9300D00F92CDB7DEB79B83E4
:1000A0008A8319828A819B81009709F4FAC1EA81C7
:1000B000FB818081882309F096C0EA81FB818181E0
:1000C000813069F48DE790E0A0E0B0E080937800A3
:1000D00090937900A0937A00B0937B004AC0EA81A4
:1000E000FB818181823069F488EE93E0A0E0B0E08A
:1000F0008093780090937900A0937A00B0937B006E
:1001000038C0EA81FB818181833069F480E49FE11A
:10011000A0E0B0E08093780090937900A0937A00FB
:10012000B0937B0026C0EA81FB818181843069F431
:1001300080E09DE7A0E0B0E08093780090937900A4
:10014000A0937A00B0937B0014C0EA81FB81818187
:10015000853069F480E094EFA1E0B0E0809378000E
:1001600090937900A0937A00B0937B0002C086E15F
:1001700089838981863129F0EA81FB81818180939D
:100180007200EA81FB818381882361F40E94220549
:1001900010927500A9E5B0E0E9E5F0E080818260A9
:1001A0008C9312C0EA81FB818381813059F4A9E5E7
:1001B000B0E0E9E5F0E080818D7F8C9381E0809371
:1001C000750002C088E18983A3E5B0E0E3E5F0E0D3
:1001D000808188608C93A3E5B0E0E3E5F0E0808166
:1001E0008F7B8C9360C1EA81FB818081813009F033
:1001F00095C0EA81FB818181813069F48DE790E0CF
:10020000A0E0B0E080937C0090937D00A0937E00FE
:10021000B0937F004AC0EA81FB818181823069F41A
:1002200088EE93E0A0E0B0E080937C0090937D00A6
:10023000A0937E00B0937F0038C0EA81FB8181816A
:10024000833069F480E49FE1A0E0B0E080937C001B
:1002500090937D00A0937E00B0937F0026C0EA813A
:10026000FB818181843069F480E09DE7A0E0B0E00B
:1002700080937C0090937D00A0937E00B0937F00DC
:1002800014C0EA81FB818181853069F480E094EFBC
:10029000A1E0B0E080937C0090937D00A0937E006D
:1002A000B0937F0002C086E189838981863129F07D
:1002B000EA81FB81818180937300EA81FB818381E4
:1002C000882391F4EAE4F0E08FEF9FEF918380833D
:1002D0000E94220510927600A9E5B0E0E9E5F0E081
:1002E000808180618C9312C0EA81FB81838181309F
:1002F00059F4A9E5B0E0E9E5F0E080818F7E8C93C8
:1003000081E08093760002C088E18983AEE4B0E0AA
:10031000EEE4F0E0808188608C93C5C0EA81FB81C7
:100320008081823009F0BAC0EA81FB81818181300D
:1003300069F48DE790E0A0E0B0E0809380009093B6
:100340008100A0938200B09383006EC0EA81FB819C
:100350008181823069F488EE93E0A0E0B0E0809380
:10036000800090938100A0938200B09383005CC0D2
:10037000EA81FB818181833069F480EA9FE0A0E01B
:10038000B0E08093800090938100A0938200B093AE
:1003900083004AC0EA81FB818181843069F480E472
:1003A0009FE1A0E0B0E08093800090938100A09353
:1003B0008200B093830038C0EA81FB81818185305F
:1003C00069F480E89EE3A0E0B0E080938000909321
:1003D0008100A0938200B093830026C0EA81FB8154
:1003E0008181863069F480E09DE7A0E0B0E08093F1
:1003F000800090938100A0938200B093830014C08A
:10040000EA81FB818181873069F480E094EFA1E08B
:10041000B0E08093800090938100A0938200B0931D
:10042000830002C086E189838981863129F0EA81CF
:10043000FB81818180937400EA81FB818381882321
:1004400061F40E94220510927700A9E5B0E0E9E589
:10045000F0E0808180688C9312C0EA81FB81838107
:10046000813059F4A9E5B0E0E9E5F0E080818F77CB
:100470008C9381E08093770002C088E18983A5E4B2
:10048000B0E0E5E4F0E0808188608C93A5E4B0E022
:10049000E5E4F0E080818F7B8C9305C085E1898362
:1004A00002C082E0898389810F900F900F90CF91D5
:1004B000DF910895DF93CF9300D000D0CDB7DEB7A2
:1004C0008A837C836B8319828A818823F1F48B81F0
:1004D0009C818F3F910509F0A8F4A3E5B0E0E3E526
:1004E000F0E08081887F8C93A3E5B0E0E3E5F0E065
:1004F000908180917200892B8C93ECE5F0E08B81E8
:10050000808344C08AE1898341C08A818130D9F4E3
:10051000ECE4F0E011821082AEE4B0E0EEE4F0E052
:100520008081887F8C93AEE4B0E0EEE4F0E09081CF
:1005300080917300892B8C93EAE4F0E08B819C819D
:100540009183808323C08A818230F1F48B819C81E6
:100550008F3F910509F0A8F4A5E4B0E0E5E4F0E0F0
:100560008081887F8C93A5E4B0E0E5E4F0E09081A1
:1005700080917400892B8C93E3E4F0E08B8180837D
:1005800005C08AE1898302C085E1898389810F9052
:100590000F900F900F90CF91DF910895DF93CF933D
:1005A00000D0CDB7DEB78A8319828A81882379F497
:1005B000A3E5B0E0E3E5F0E08081982F8091720040
:1005C000809589238C93E2E5F0E0108229C08A812E
:1005D000813091F4AEE4B0E0EEE4F0E08081982F59
:1005E00080917300809589238C93ECE4F0E0108275
:1005F000EDE4F0E0108214C08A81823079F4A5E441
:10060000B0E0E5E4F0E08081982F80917200809561
:1006100089238C93E4E4F0E0108202C085E18983B1
:1006200089810F900F90CF91DF910895DF93CF9341
:1006300000D0CDB7DEB78A8319828A81882321F45E
:10064000E2E5F0E0108215C08A81813049F4ECE4E3
:10065000F0E011821082EAE4F0E01182108209C019
:100660008A81823021F4E4E4F0E0108202C085E166
:10067000898389810F900F90CF91DF910895DF9347
:10068000CF9300D000D0CDB7DEB78A837C836B8355
:1006900019828B819C810097C9F18A81882379F422
:1006A0008091780090917900A0917A00B0917B00C0
:1006B000EB81FC8180839183A283B38329C08A81EB
:1006C000813079F480917C0090917D00A0917E0032
:1006D000B0917F00EB81FC8180839183A283B383FF
:1006E00017C08A81823079F48091800090918100D6
:1006F000A0918200B0918300EB81FC818083918383
:10070000A283B38305C085E1898302C082E0898327
:1007100089810F900F900F900F90CF91DF910895E6
:10072000DF93CF9300D000D000D0CDB7DEB79B834E
:100730008A836C8319828A819B81009759F18C810D
:10074000282F30E03E832D838D819E81813091055D
:1007500081F02D813E812230310591F08D819E8185
:100760000097A9F48A819B819093850080938400EF
:1007700013C08A819B8190938700809386000CC070
:100780008A819B81909389008093880005C085E1D0
:10079000898302C082E08983898126960FB6F89406
:1007A000DEBF0FBECDBFCF91DF9108951F920F9294
:1007B0000FB60F9211242F933F934F935F936F9334
:1007C0007F938F939F93AF93BF93EF93FF93DF93A9
:1007D000CF93CDB7DEB780918400909185000097CC
:1007E00029F0E0918400F09185000995CF91DF9187
:1007F000FF91EF91BF91AF919F918F917F916F91F9
:100800005F914F913F912F910F900FBE0F901F90CE
:1008100018951F920F920FB60F9211242F933F93AA
:100820004F935F936F937F938F939F93AF93BF93F8
:10083000EF93FF93DF93CF93CDB7DEB78091860020
:1008400090918700009729F0E0918600F091870051
:100850000995CF91DF91FF91EF91BF91AF919F915A
:100860008F917F916F915F914F913F912F910F9059
:100870000FBE0F901F9018951F920F920FB60F92F8
:1008800011242F933F934F935F936F937F938F9395
:100890009F93AF93BF93EF93FF93DF93CF93CDB726
:1008A000DEB78091880090918900009729F0E0914F
:1008B0008800F09189000995CF91DF91FF91EF9128
:1008C000BF91AF919F918F917F916F915F914F9168
:1008D0003F912F910F900FBE0F901F901895DF93AF
:1008E000CF93CDB7DEB7A3E5B0E0E3E5F0E08081DC
:1008F0008F778C93A3E5B0E0E3E5F0E080818F7B18
:100900008C93A3E5B0E0E3E5F0E08081877F8C93F2
:10091000A3E5B0E0E3E5F0E080818F7D8C93A3E573
:10092000B0E0E3E5F0E080818F7E8C93A3E5B0E05A
:10093000E3E5F0E080818B7F8C93A3E5B0E0E3E515
:10094000F0E080818D7F8C93A3E5B0E0E3E5F0E0FB
:10095000808181608C93E2E5F0E01082A9E5B0E04F
:10096000E9E5F0E0808181608C93AFE5B0E0EFE5F0
:10097000F0E0808180688C93CF91DF9108951F9281
:100980000F920FB60F9211248F939F93AF93BF9343
:10099000DF93CF93CDB7DEB780916E0090916F005B
:1009A000A0917000B09171000196A11DB11D8093BE
:1009B0006E0090936F00A0937000B0937100CF9180
:1009C000DF91BF91AF919F918F910F900FBE0F90CC
:1009D0001F901895DF93CF93CDB7DEB7A5E5B0E0B4
:1009E000E5E5F0E0808180688C93CF91DF910895F8
:1009F000DF93CF93CDB7DEB7A5E5B0E0E5E5F0E056
:100A000080818F778C93CF91DF910895DF93CF937F
:100A10000F92CDB7DEB789838981813778F4A5E558
:100A2000B0E0E5E5F0E080818F788C93A5E5B0E05B
:100A3000E5E5F0E090818981892B8C930F90CF912F
:100A4000DF910895DF93CF93CDB7DEB7AFE5B0E088
:100A5000EFE5F0E0808180688C93CF91DF9108957D
:100A6000DF93CF93CDB7DEB7AFE5B0E0EFE5F0E0D1
:100A700080818F778C93CF91DF910895DF93CF930F
:100A8000CDB7DEB72B970FB6F894DEBF0FBECDBF44
:100A90008A836B8319828A81282F30E03B872A87DB
:100AA0008A859B858130910509F485C02A853B851F
:100AB0002230310509F4F9C08A859B85009709F039
:100AC00031C18B81282F30E0398728878885998527
:100AD0008130910559F128853985223031052CF472
:100AE00088859985009769F063C02885398522300B
:100AF000310591F1888599858330910509F442C0CB
:100B000057C0A5E5B0E0E5E5F0E080818C7F8C93EF
:100B1000A5E5B0E0E5E5F0E080818C93ABE5B0E0E1
:100B2000EBE5F0E0808180648C93FEC0A5E5B0E049
:100B3000E5E5F0E080818C7F8C93A5E5B0E0E5E50C
:100B4000F0E0808181608C93ABE5B0E0EBE5F0E014
:100B5000808180648C93E8C0A5E5B0E0E5E5F0E035
:100B600080818C7F8C93A5E5B0E0E5E5F0E08081A5
:100B700082608C93ABE5B0E0EBE5F0E080818064CF
:100B80008C93D2C0A5E5B0E0E5E5F0E080818C7FF4
:100B90008C93A5E5B0E0E5E5F0E0808183608C937F
:100BA000ABE5B0E0EBE5F0E0808180648C93BCC005
:100BB0008AE28983B9C08B81282F30E03F832E835E
:100BC0008E819F818430910559F12E813F8125309E
:100BD00031052CF48E819F81009769F063C02E81CE
:100BE0003F812830310591F18E819F818C309105B4
:100BF00009F442C057C0A5E5B0E0E5E5F0E080812A
:100C0000837F8C93A5E5B0E0E5E5F0E080818C93EF
:100C1000ABE5B0E0EBE5F0E0808180688C9384C0C8
:100C2000A5E5B0E0E5E5F0E08081837F8C93A5E564
:100C3000B0E0E5E5F0E0808184608C93ABE5B0E066
:100C4000EBE5F0E0808180688C936EC0A5E5B0E0B4
:100C5000E5E5F0E08081837F8C93A5E5B0E0E5E5F4
:100C6000F0E0808188608C93ABE5B0E0EBE5F0E0EC
:100C7000808180688C9358C0A5E5B0E0E5E5F0E0A0
:100C80008081837F8C93A5E5B0E0E5E5F0E080818D
:100C90008C608C93ABE5B0E0EBE5F0E080818068A0
:100CA0008C9342C08BE289833FC08B81282F30E038
:100CB0003D832C838C819D81009731F02C813D8177
:100CC00020343105B1F02BC0A4E5B0E0E4E5F0E05C
:100CD00080818F7B8C93A4E5B0E0E4E5F0E0808137
:100CE0008C93ABE5B0E0EBE5F0E0808180628C9323
:100CF0001BC0A4E5B0E0E4E5F0E080818F7B8C933D
:100D0000A4E5B0E0E4E5F0E0808180648C93ABE59D
:100D1000B0E0EBE5F0E0808180628C9305C08CE26E
:100D2000898302C089E289838981882351F48A8179
:100D3000882F90E0FC01E057FF4F81E080830E9404
:100D4000220589812B960FB6F894DEBF0FBECDBF6A
:100D5000CF91DF910895DF93CF9300D000D0CDB72E
:100D6000DEB78A8319828A81882F90E0FC01E057E0
:100D7000FF4F80818130A9F58A81282F30E03C83A4
:100D80002B838B819C818130910589F02B813C8163
:100D900022303105A1F08B819C810097C1F4ABE535
:100DA000B0E0EBE5F0E080818F7B8C9312C0ABE587
:100DB000B0E0EBE5F0E080818F778C930AC0ABE583
:100DC000B0E0EBE5F0E080818F7D8C9302C089E29A
:100DD00089838A81882F90E0FC01E057FF4F1082C1
:100DE00002C08DE2898389810F900F900F900F9040
:100DF000CF91DF910895DF93CF93CDB7DEB72B97D7
:100E00000FB6F894DEBF0FBECDBF8A836B83198205
:100E10008A81882F90E0FC01E057FF4F808181306C
:100E200009F02CC18A81282F30E03B872A878A85E8
:100E30009B858130910509F468C02A853B85223065
:100E4000310509F4BFC08A859B85009709F013C15D
:100E50008B81282F30E039872887888599858130D4
:100E6000910519F128853985223031052CF48885C2
:100E70009985009761F046C0288539852230310573
:100E800019F1888599858330910569F13BC0A5E505
:100E9000B0E0E5E5F0E080818C7F8C93A5E5B0E0E3
:100EA000E5E5F0E080818C93EBC0A5E5B0E0E5E5F9
:100EB000F0E080818C7F8C93A5E5B0E0E5E5F0E083
:100EC000808181608C93DCC0A5E5B0E0E5E5F0E0D1
:100ED00080818C7F8C93A5E5B0E0E5E5F0E0808132
:100EE00082608C93CDC0A5E5B0E0E5E5F0E08081BF
:100EF0008C7F8C93A5E5B0E0E5E5F0E08081836030
:100F00008C93BEC08AE28983BBC08B81282F30E0DE
:100F10003F832E838E819F818430910519F12E812C
:100F20003F81253031052CF48E819F81009761F03F
:100F300046C02E813F812830310519F18E819F8175
:100F40008C30910569F13BC0A5E5B0E0E5E5F0E046
:100F50008081837F8C93A5E5B0E0E5E5F0E08081BA
:100F60008C938EC0A5E5B0E0E5E5F0E08081837F5D
:100F70008C93A5E5B0E0E5E5F0E0808184608C939A
:100F80007FC0A5E5B0E0E5E5F0E08081837F8C934C
:100F9000A5E5B0E0E5E5F0E0808188608C9370C065
:100FA000A5E5B0E0E5E5F0E08081837F8C93A5E5E1
:100FB000B0E0E5E5F0E080818C608C9361C08BE26D
:100FC00089835EC08B81282F30E03D832C838C8108
:100FD0009D81009731F02C813D812034310521F134
:100FE00047C0ABE5B0E0EBE5F0E080818F7D8C930E
:100FF000AAE5B0E0EAE5F0E0808180628C93A4E5A8
:10100000B0E0E4E5F0E080818F7B8C93A4E5B0E074
:10101000E4E5F0E080818C93ABE5B0E0EBE5F0E057
:10102000808180628C932CC0ABE5B0E0EBE5F0E012
:1010300080818F7D8C93AAE5B0E0EAE5F0E08081C5
:1010400080628C93A4E5B0E0E4E5F0E080818F7BE2
:101050008C93A4E5B0E0E4E5F0E0808180648C93BB
:10106000ABE5B0E0EBE5F0E0808180628C9308C0F6
:101070008CE2898305C089E2898302C08DE289837D
:1010800089812B960FB6F894DEBF0FBECDBFCF91EE
:10109000DF910895DF93CF9300D000D0CDB7DEB7B6
:1010A0009B838A836C8319828A819B81009799F044
:1010B0008C81833068F48C81882F90E0880F991F91
:1010C000FC01E657FF4F8A819B819183808305C095
:1010D00089E2898302C082E0898389810F900F9021
:1010E0000F900F90CF91DF9108951F920F920FB63E
:1010F0000F9211242F933F934F935F936F937F939E
:101100008F939F93AF93BF93EF93FF93DF93CF930F
:10111000CDB7DEB780918A0090918B00009729F0BF
:10112000E0918A00F0918B000995CF91DF91FF91BA
:10113000EF91BF91AF919F918F917F916F915F914F
:101140004F913F912F910F900FBE0F901F901895C8
:101150001F920F920FB60F9211242F933F934F932C
:101160005F936F937F938F939F93AF93BF93EF930F
:10117000FF93DF93CF93CDB7DEB780918C00909132
:101180008D00009729F0E0918C00F0918D00099579
:10119000CF91DF91FF91EF91BF91AF919F918F918F
:1011A0007F916F915F914F913F912F910F900FBE63
:1011B0000F901F9018951F920F920FB60F92112447
:1011C0002F933F934F935F936F937F938F939F934F
:1011D000AF93BF93EF93FF93DF93CF93CDB7DEB77A
:1011E00080918E0090918F00009729F0E0918E0001
:1011F000F0918F000995CF91DF91FF91EF91BF9111
:10120000AF919F918F917F916F915F914F913F919E
:101210002F910F900FBE0F901F901895DF93CF93D3
:1012200000D000D000D0CDB7DEB78B836C8381E0D7
:101230008A838B81803208F0D6C08C81823008F09E
:10124000D2C01A828B8186958695869589838B81FB
:1012500087708B838981282F30E03E832D838D8199
:101260009E818130910509F441C02D813E8122305B
:1012700031052CF48D819E81009771F0B4C02D81D1
:101280003E812230310509F45BC08D819E8183301F
:10129000910509F47FC0A7C08C81813099F4AAE33D
:1012A000B0E0EAE3F0E040818B81282F30E081E07C
:1012B00090E0022E02C0880F991F0A94E2F7842B57
:1012C0008C9391C0AAE3B0E0EAE3F0E040818B8127
:1012D000282F30E081E090E0022E02C0880F991F95
:1012E0000A94E2F7809584238C937DC08C818130B1
:1012F00099F4A7E3B0E0E7E3F0E040818B81282F89
:1013000030E081E090E0022E02C0880F991F0A941D
:10131000E2F7842B8C9367C0A7E3B0E0E7E3F0E04B
:1013200040818B81282F30E081E090E0022E02C0C6
:10133000880F991F0A94E2F7809584238C9353C0F9
:101340008C81813099F4A4E3B0E0E4E3F0E04081E3
:101350008B81282F30E081E090E0022E02C0880FC0
:10136000991F0A94E2F7842B8C933DC0A4E3B0E06C
:10137000E4E3F0E040818B81282F30E081E090E0D1
:10138000022E02C0880F991F0A94E2F780958423E9
:101390008C9329C08C81813099F4A1E3B0E0E1E322
:1013A000F0E040818B81282F30E081E090E0022E38
:1013B00002C0880F991F0A94E2F7842B8C9313C004
:1013C000A1E3B0E0E1E3F0E040818B81282F30E041
:1013D00081E090E0022E02C0880F991F0A94E2F784
:1013E000809584238C938A8126960FB6F894DEBF6D
:1013F0000FBECDBFCF91DF910895DF93CF9300D083
:1014000000D00F92CDB7DEB78A836B8381E08983EA
:101410008A81843098F519828A81282F30E03D83B3
:101420002C838C819D8181309105D1F02C813D816F
:10143000223031052CF48C819D81009761F01EC013
:101440002C813D812230310581F08C819D8183305A
:10145000910581F013C0EAE3F0E08B8180830EC038
:10146000E7E3F0E08B81808309C0E4E3F0E08B8167
:10147000808304C0E1E3F0E08B81808389810F9059
:101480000F900F900F900F90CF91DF910895DF9301
:10149000CF9300D000D000D0CDB7DEB78B836C8364
:1014A00081E08A838B81803208F0D6C08C818230C3
:1014B00008F0D2C01A828B8186958695869589839D
:1014C0008B8187708B838981282F30E03E832D8329
:1014D0008D819E818130910509F441C02D813E812D
:1014E000223031052CF48D819E81009771F0B4C0BB
:1014F0002D813E812230310509F45BC08D819E81B2
:101500008330910509F47FC0A7C08C81813099F4A4
:10151000ABE3B0E0EBE3F0E040818B81282F30E0DB
:1015200081E090E0022E02C0880F991F0A94E2F732
:10153000842B8C9391C0ABE3B0E0EBE3F0E040810F
:101540008B81282F30E081E090E0022E02C0880FCE
:10155000991F0A94E2F7809584238C937DC08C8137
:10156000813099F4A8E3B0E0E8E3F0E040818B81BA
:10157000282F30E081E090E0022E02C0880F991FF2
:101580000A94E2F7842B8C9367C0A8E3B0E0E8E309
:10159000F0E040818B81282F30E081E090E0022E46
:1015A00002C0880F991F0A94E2F7809584238C93D8
:1015B00053C08C81813099F4A5E3B0E0E5E3F0E01D
:1015C00040818B81282F30E081E090E0022E02C024
:1015D000880F991F0A94E2F7842B8C933DC0A5E3F2
:1015E000B0E0E5E3F0E040818B81282F30E081E03E
:1015F00090E0022E02C0880F991F0A94E2F78095AE
:1016000084238C9329C08C81813099F4A2E3B0E0CB
:10161000E2E3F0E040818B81282F30E081E090E030
:10162000022E02C0880F991F0A94E2F7842B8C9334
:1016300013C0A2E3B0E0E2E3F0E040818B81282F09
:1016400030E081E090E0022E02C0880F991F0A94DA
:10165000E2F7809584238C938A8126960FB6F894BE
:10166000DEBF0FBECDBFCF91DF910895DF93CF9343
:1016700000D000D00F92CDB7DEB78A836B8381E0B4
:1016800089838A81843098F519828A81282F30E0F5
:101690003D832C838C819D8181309105D1F02C81FB
:1016A0003D81223031052CF48C819D81009761F0C1
:1016B0001EC02C813D812230310581F08C819D81BD
:1016C0008330910581F013C0EBE3F0E08B818083E0
:1016D0000EC0E8E3F0E08B81808309C0E5E3F0E031
:1016E0008B81808304C0E2E3F0E08B818083898179
:1016F0000F900F900F900F900F90CF91DF91089562
:10170000DF93CF93CDB7DEB727970FB6F894DEBF40
:101710000FBECDBF8B837D836C8381E08A838B81F9
:10172000803208F079C01A828B81869586958695DD
:1017300089838B8187708B838981282F30E03F8359
:101740002E834E815F814130510559F18E819F81F9
:101750008230910534F42E813F812115310569F0E5
:101760005BC04E815F814230510579F18E819F814E
:101770008330910509F43DC04FC0E9E3F0E080817A
:10178000282F30E08B81882F90E0A90102C0559569
:1017900047958A95E2F7CA018170EC81FD818083CB
:1017A0003BC0E6E3F0E08081282F30E08B81882F7A
:1017B00090E0A90102C0559547958A95E2F7CA01C4
:1017C0008170EC81FD81808327C0E3E3F0E08081BC
:1017D000282F30E08B81882F90E0A90102C0559519
:1017E00047958A95E2F7CA018170EC81FD8180837B
:1017F00013C0E0E3F0E08081282F30E08B81882F58
:1018000090E0A90102C0559547958A95E2F7CA0173
:101810008170EC81FD8180838A8127960FB6F894D0
:10182000DEBF0FBECDBFCF91DF910895DF93CF9381
:1018300000D000D000D0CDB7DEB78A837C836B8325
:1018400081E089838A818430D8F519828A81282FA2
:1018500030E03E832D838D819E8181309105E1F0C2
:101860002D813E81223031052CF48D819E8100979F
:1018700061F026C02D813E8122303105A1F08D819D
:101880009E8183309105B1F01BC0E9E3F0E08081D7
:10189000EB81FC81808314C0E6E3F0E08081EB8182
:1018A000FC8180830DC0E3E3F0E08081EB81FC816B
:1018B000808306C0E0E3F0E08081EB81FC818083DF
:1018C000898126960FB6F894DEBF0FBECDBFCF91AB
:1018D000DF910895DF93CF9300D000D00F92CDB762
:1018E000DEB78B8381E08A838B81803208F073C0FE
:1018F0001A828B8186958695869589838B818770E0
:101900008B838981282F30E03D832C838C819D81BE
:101910008130910541F12C813D81223031052CF43B
:101920008C819D81009761F056C02C813D812230D1
:10193000310561F18C819D8183309105D1F14BC0DE
:10194000ABE3B0E0EBE3F0E040818B81282F30E0A7
:1019500081E090E0022E02C0880F991F0A94E2F7FE
:10196000842B8C9338C0A8E3B0E0E8E3F0E040813A
:101970008B81282F30E081E090E0022E02C0880F9A
:10198000991F0A94E2F7842B8C9325C0A5E3B0E05D
:10199000E5E3F0E040818B81282F30E081E090E0AA
:1019A000022E02C0880F991F0A94E2F7842B8C93B1
:1019B00012C0A2E3B0E0E2E3F0E040818B81282F87
:1019C00030E081E090E0022E02C0880F991F0A9457
:1019D000E2F7842B8C938A810F900F900F900F90D9
:1019E0000F90CF91DF910895DF93CF9300D000D077
:1019F000CDB7DEB78A8381E089838A81843098F508
:101A000019828A81282F30E03C832B838B819C8133
:101A100081309105D1F02B813C81223031052CF4AD
:101A20008B819C81009761F01EC02B813C8122300C
:101A3000310581F08B819C818330910581F013C049
:101A4000EBE3F0E08FEF80830EC0E8E3F0E08FEF90
:101A5000808309C0E5E3F0E08FEF808304C0E2E318
:101A6000F0E08FEF808389810F900F900F900F909F
:101A7000CF91DF910895DF93CF9300D000D00F92E4
:101A8000CDB7DEB78B8381E08A838B81803208F00B
:101A900073C01A828B8186958695869589838B8102
:101AA00087708B838981282F30E03D832C838C8144
:101AB0009D818130910541F12C813D81223031059C
:101AC0002CF48C819D81009761F056C02C813D8162
:101AD0002230310561F18C819D8183309105D1F1F6
:101AE0004BC0ABE3B0E0EBE3F0E040818B81282F0B
:101AF00030E081E090E0022E02C0880F991F0A9426
:101B0000E2F784278C9338C0A8E3B0E0E8E3F0E084
:101B100040818B81282F30E081E090E0022E02C0CE
:101B2000880F991F0A94E2F784278C9325C0A5E3B8
:101B3000B0E0E5E3F0E040818B81282F30E081E0E8
:101B400090E0022E02C0880F991F0A94E2F78427C2
:101B50008C9312C0A2E3B0E0E2E3F0E040818B811D
:101B6000282F30E081E090E0022E02C0880F991FFC
:101B70000A94E2F784278C938A810F900F900F903C
:101B80000F900F90CF91DF910895DF93CF9300D006
:101B900000D0CDB7DEB78A8381E089838A81843023
:101BA00008F03FC019828A81282F30E03C832B83C4
:101BB0008B819C8181309105E9F02B813C81223021
:101BC00031052CF48B819C81009761F02AC02B8118
:101BD0003C8122303105B1F08B819C8183309105AD
:101BE000C9F01FC0ABE3B0E0EBE3F0E0808180958B
:101BF0008C9317C0A8E3B0E0E8E3F0E08081809523
:101C00008C930FC0A5E3B0E0E5E3F0E08081809520
:101C10008C9307C0A2E3B0E0E2E3F0E0808180951E
:101C20008C9389810F900F900F900F90CF91DF913F
:101C30000895EF92FF920F931F93DF93CF93CDB749
:101C4000DEB70E94300580919F009091A000A09186
:101C5000A100B091A200803A26E8920721E0A207F5
:101C600020E0B207A0F480919F009091A000A09185
:101C7000A100B091A2000196A11DB11D80939F000B
:101C80009093A000A093A100B093A2000CC081E0AB
:101C900090E0A0E0B0E080939F009093A000A0931C
:101CA000A100B093A20010929B004FC080919B00B6
:101CB000282F30E0C901880F991F880F991F880FBE
:101CC000991F820F931FFC01E755FF4F80818130E0
:101CD000B9F5E0909F00F090A0000091A100109154
:101CE000A20080919B00282F30E0C901880F991F26
:101CF000880F991F880F991F820F931FFC01ED55C4
:101D0000FF4F2081318142815381C801B7010E9478
:101D1000C61BDC01CB010097A105B10589F48091B8
:101D20009B00282F30E0C901880F991F880F991F49
:101D3000880F991F820F931FFC01E855FF4F1082F7
:101D400080919B008F5F80939B0080919B008430EB
:101D500008F4ACCF0E942205CF91DF911F910F9123
:101D6000FF90EF900895DF93CF93CDB7DEB729971B
:101D70000FB6F894DEBF0FBECDBF6E837F8388871A
:101D8000998719821A821B821C821D8280E890E04A
:101D9000A0E0B0E08093930090939400A09395000E
:101DA000B0939600809161008823D9F480919300CC
:101DB00090919400A0919500B09196002FEF30E0A3
:101DC00040E050E0BC01CD010E94A71BDC01CB012B
:101DD0008093970090939800A0939900B0939A00F5
:101DE00040C0809161008130D9F48091930090913E
:101DF0009400A0919500B09196002FEF3FEF40E046
:101E000050E0BC01CD010E94A71BDC01CB018093F7
:101E1000970090939800A0939900B0939A0021C0E6
:101E2000809161008230D9F4809193009091940068
:101E3000A0919500B09196002FEF30E040E050E087
:101E4000BC01CD010E94A71BDC01CB018093970050
:101E500090939800A0939900B0939A0002C085E1F6
:101E60008983209193003091940040919500509186
:101E700096008E819F81A885B98582179307A40754
:101E8000B507E8F1209197003091980040919900B2
:101E900050919A008E819F81A885B98528173907AE
:101EA0004A075B0760F18981882349F581E690E064
:101EB0000E944900809161009E012E5F3F4FB90151
:101EC0000E943F038E819F81A885B98528EE33E06B
:101ED00040E050E0BC01CD010E94A71BDC01CB011A
:101EE0002A813B814C815D81BC01CD010E94C61BD2
:101EF000DA01C90190939D0080939C0002C089E69D
:101F000089838981882399F48CE6809360002091ED
:101F1000610089E19EE0622F0E9490038091610040
:101F200020919C0030919D00B9010E945A02898144
:101F300029960FB6F894DEBF0FBECDBFCF91DF91CB
:101F40000895DF93CF930F92CDB7DEB719828091BA
:101F500060008C3649F4809161000E94CE02898332
:101F60008DE68093600002C08DE6898389810F90A1
:101F7000CF91DF910895DF93CF93CDB7DEB7289748
:101F80000FB6F894DEBF0FBECDBF9B838A834C8310
:101F90005D836E837F8328871982809160008C36F1
:101FA00009F0A9C08A819B81009709F4A1C0209102
:101FB00093003091940040919500509196008C814F
:101FC0009D81AE81BF8182179307A407B50708F4EE
:101FD0008CC02091970030919800409199005091C9
:101FE0009A008C819D81AE81BF81281739074A07ED
:101FF0005B0708F47AC088858F3F21F0888581309F
:1020000009F070C080919E00843008F068C0809113
:102010009E00282F30E0C901880F991F880F991F53
:10202000880F991F820F931FFC01ED55FF4F8C8184
:102030009D81AE81BF8180839183A283B383809190
:102040009E00282F30E0C901880F991F880F991F23
:10205000880F991F820F931FFC01E955FF4F888558
:10206000808380919E00282F30E0C901880F991F3E
:10207000880F991F880F991F820F931FFC01E85545
:10208000FF4F81E0808380919E00282F30E0C901BE
:10209000880F991F880F991F880F991F820F931F10
:1020A000FC01E755FF4F81E0808380919E00282F3F
:1020B00030E0C901880F991F880F991F880F991F59
:1020C000820F931FFC01E655FF4F8A819B8191830C
:1020D000808380919E008F5F80939E000EC08BE670
:1020E00089830BC085E6898308C089E6898305C09A
:1020F00082E0898302C08DE68983898128960FB6A4
:10210000F894DEBF0FBECDBFCF91DF910895DF936E
:10211000CF9300D000D0CDB7DEB79C838B831A82DB
:102120001982809160008C3609F054C08B819C81AB
:10213000009709F44CC0198245C08981282F30E0EE
:10214000C901880F991F880F991F880F991F820F47
:10215000931FFC01E655FF4F208131818B819C81CB
:102160002817390789F48981282F30E0C901880FA1
:10217000991F880F991F880F991F820F931FFC01C9
:10218000E755FF4F10821BC08981282F30E0C9011D
:10219000880F991F880F991F880F991F820F931F0F
:1021A000FC01E655FF4F208131818B819C812817EE
:1021B000390729F08981833011F48AE68A8389817D
:1021C0008F5F89838981843008F4B7CF05C082E0AE
:1021D0008A8302C08DE68A838A810F900F900F90C8
:1021E0000F90CF91DF910895DF93CF9300D000D06F
:1021F000CDB7DEB79C838B831A82198280916000F1
:102200008C3609F055C08B819C81009709F44DC034
:10221000198246C08981282F30E0C901880F991F93
:10222000880F991F880F991F820F931FFC01E65595
:10223000FF4F208131818B819C812817390791F4D0
:102240008981282F30E0C901880F991F880F991FB5
:10225000880F991F820F931FFC01E755FF4F81E004
:1022600080831BC08981282F30E0C901880F991F06
:10227000880F991F880F991F820F931FFC01E65545
:10228000FF4F208131818B819C812817390729F0EC
:102290008981833011F48AE68A8389818F5F8983FB
:1022A0008981843008F4B6CF05C082E08A8302C0F9
:1022B0008DE68A838A810F900F900F900F90CF91B7
:1022C000DF910895DF93CF9300D0CDB7DEB71A82A8
:1022D000198219825FC08981282F30E0C901880FD7
:1022E000991F880F991F880F991F820F931FFC0158
:1022F000E855FF4F8081882309F049C08981282F44
:1023000030E0C901880F991F880F991F880F991F06
:10231000820F931FFC01E655FF4F0190F081E02DE5
:1023200009958981282F30E0C901880F991F880FEE
:10233000991F880F991F820F931FFC01E855FF4FCB
:1023400081E080838981282F30E0C901880F991F9F
:10235000880F991F880F991F820F931FFC01E95561
:10236000FF4F8081813099F48981282F30E0C901A5
:10237000880F991F880F991F880F991F820F931F2D
:10238000FC01E655FF4F808191810E948710898171
:102390008F5F89838981843008F49DCF8A810F9073
:1023A0000F90CF91DF910895EF92FF920F931F93BB
:1023B000DF93CF930F92CDB7DEB70E94300519821D
:1023C0008091D2009091D300A091D400B091D5001B
:1023D000803A26E8920721E0A20720E0B20769F4DC
:1023E00081E090E0A0E0B0E08093D2009093D30031
:1023F000A093D400B093D50013C08091D2009091E7
:10240000D300A091D400B091D5000196A11DB11DBB
:102410008093D2009093D300A093D400B093D500C2
:10242000198238C0E090D200F090D3000091D4001F
:102430001091D5008981282F30E0C901880F991F9C
:10244000880F991F880F991F820F931FFC01EA5272
:10245000FF4F2081318142815381C801B7010E9421
:10246000C61BDC01CB010097A105B10581F4898170
:10247000282F30E0C901880F991F880F991F880FF6
:10248000991F820F931FFC01E452FF4F1082898134
:102490008F5F89839091D1008981891718F20E94FA
:1024A00022050F90CF91DF911F910F91FF90EF9038
:1024B0000895DF93CF93CDB7DEB729970FB6F89481
:1024C000DEBF0FBECDBF6E837F8388879987198259
:1024D0001A821B821C821D8280E890E0A0E0B0E09E
:1024E0008093C7009093C800A093C900B093CA001E
:1024F000809166008823D9F48091C7009091C8002C
:10250000A091C900B091CA002FEF30E040E050E048
:10251000BC01CD010E94A71BDC01CB018093CB0045
:102520009093CC00A093CD00B093CE0040C080919A
:1025300066008130D9F48091C7009091C800A091C5
:10254000C900B091CA002FEF3FEF40E050E0BC015E
:10255000CD010E94A71BDC01CB018093CB0090939F
:10256000CC00A093CD00B093CE0021C08091660036
:102570008230D9F48091C7009091C800A091C90021
:10258000B091CA002FEF30E040E050E0BC01CD0137
:102590000E94A71BDC01CB018093CB009093CC0061
:1025A000A093CD00B093CE0002C085E18983209135
:1025B000C7003091C8004091C9005091CA008E8177
:1025C0009F81A885B98582179307A407B50708F4EA
:1025D00045C02091CB003091CC004091CD0050916E
:1025E000CE008E819F81A885B985281739074A07B3
:1025F0005B07A0F18981882389F586E690E00E9437
:102600004900809166009E012E5F3F4FB9010E94F4
:102610003F038A819B81AC81BD8128EE33E040E09D
:1026200050E0BC01CD010E94C61BDA01C9018A83BA
:102630009B83AC83BD832A813B814C815D818E81EC
:102640009F81A885B985BC01CD010E94C61BDA0116
:10265000C9019093D0008093CF0002C08EE8898397
:102660008981882399F480E9809365002091660030
:1026700084ED91E1622F0E94900380916600209189
:10268000CF003091D000B9010E945A028981299669
:102690000FB6F894DEBF0FBECDBFCF91DF91089586
:1026A000DF93CF930F92CDB7DEB71982809165008B
:1026B000803949F4809166000E94CE02898381E9C5
:1026C0008093650002C081E9898389810F90CF9151
:1026D000DF9108950F93DF93CF93CDB7DEB729979E
:1026E0000FB6F894DEBF0FBECDBF9B838A834C83A9
:1026F0005D836E837F8328870987198280916500B7
:10270000803909F0A6C08A819B81009709F49EC098
:102710002091C7003091C8004091C9005091CA0073
:102720008C819D81AE81BF8182179307A407B50775
:1027300008F489C02091CB003091CC004091CD00AD
:102740005091CE008C819D81AE81BF8128173907C1
:102750004A075B0708F477C08985882309F470C0AD
:102760008091D1008A3008F068C08091D100282F74
:1027700030E0C901880F991F880F991F880F991F92
:10278000820F931FFC01EA52FF4F8C819D81AE8125
:10279000BF8180839183A283B3838091D100282F4E
:1027A00030E0C901880F991F880F991F880F991F62
:1027B000820F931FFC01E652FF4F88858083809132
:1027C000D100282F30E0C901880F991F880F991F69
:1027D000880F991F820F931FFC01E552FF4F8985D7
:1027E00080838091D100282F30E0C901880F991F84
:1027F000880F991F880F991F820F931FFC01E452C5
:10280000FF4F82E080838091D100282F30E0C90102
:10281000880F991F880F991F880F991F820F931F88
:10282000FC01E352FF4F8A819B81918380838091D9
:10283000D1008F5F8093D1000EC08FE889830BC0D9
:102840008DE8898308C08EE8898305C082E089838A
:1028500002C081E98983898129960FB6F894DEBF89
:102860000FBECDBFCF91DF910F910895DF93CF932E
:1028700000D000D0CDB7DEB79C838B831A8219823B
:1028800080916500803909F05BC18B819C81009744
:1028900009F453C119824AC18981282F30E0C90146
:1028A000880F991F880F991F880F991F820F931FF8
:1028B000FC01E352FF4F208131818B819C812817DD
:1028C000390709F00DC18091D10081508093D1006A
:1028D0008981482F50E08091D100282F30E0C90134
:1028E000880F991F880F991F880F991F820F931FB8
:1028F000FC01E352FF4F20813181CA01880F991FEB
:10290000880F991F880F991F840F951FFC01E352B0
:10291000FF4F318320838981682F70E08091D1003F
:10292000282F30E0C901880F991F880F991F880F41
:10293000991F820F931FFC01EA52FF4F20813181C2
:1029400042815381CB01880F991F880F991F880FEF
:10295000991F860F971FFC01EA52FF4F2083318396
:10296000428353838981482F50E08091D100282FE2
:1029700030E0C901880F991F880F991F880F991F90
:10298000820F931FFC01E552FF4F2081CA01880F7F
:10299000991F880F991F880F991F840F951FFC019D
:1029A000E552FF4F20838981482F50E08091D1006C
:1029B000282F30E0C901880F991F880F991F880FB1
:1029C000991F820F931FFC01E652FF4F2081CA011D
:1029D000880F991F880F991F880F991F840F951FC3
:1029E000FC01E652FF4F20838981482F50E08091FF
:1029F000D100282F30E0C901880F991F880F991F37
:102A0000880F991F820F931FFC01E452FF4F208112
:102A1000CA01880F991F880F991F880F991F840F6B
:102A2000951FFC01E452FF4F20838091D100282F95
:102A300030E0C901880F991F880F991F880F991FCF
:102A4000820F931FFC01E352FF4F1182108280918D
:102A5000D100282F30E0C901880F991F880F991FD6
:102A6000880F991F820F931FFC01EA52FF4F1082BB
:102A70001182128213828091D100282F30E0C90187
:102A8000880F991F880F991F880F991F820F931F16
:102A9000FC01E552FF4F10828091D100282F30E0D9
:102AA000C901880F991F880F991F880F991F820FDE
:102AB000931FFC01E652FF4F10828091D100282F16
:102AC00030E0C901880F991F880F991F880F991F3F
:102AD000820F931FFC01E452FF4F81E0808323C0EB
:102AE0008981282F30E0C901880F991F880F991F0D
:102AF000880F991F820F931FFC01E352FF4F208123
:102B000031818B819C812817390769F08981282FB1
:102B100030E08091D100882F90E001972817390785
:102B200011F48FE88A8389818F5F89839091D10026
:102B30008981891708F4B0CE05C082E08A8302C07B
:102B400081E98A838A810F900F900F900F90CF9127
:102B5000DF910895DF93CF9300D000D000D0CDB7A0
:102B6000DEB71C821B821A8219821B8245C08B81B0
:102B7000282F30E0C901880F991F880F991F880FEF
:102B8000991F820F931FFC01E452FF4F8081882F11
:102B900090E0009771F58981882F90E0009729F4E3
:102BA0008B818A8381E0898324C08B81282F30E048
:102BB000C901880F991F880F991F880F991F820FCD
:102BC000931FFC01E652FF4F40818A81282F30E09D
:102BD000C901880F991F880F991F880F991F820FAD
:102BE000931FFC01E652FF4F8081841710F48B8104
:102BF0008A838B818F5F8B839091D1008B81891722
:102C000008F4B5CF8A81282F30E0C901880F991FB9
:102C1000880F991F880F991F820F931FFC01E452A0
:102C2000FF4F8081882F90E0009709F069C08A816A
:102C3000282F30E0C901880F991F880F991F880F2E
:102C4000991F820F931FFC01E352FF4F0190F08107
:102C5000E02D09958A81282F30E0C901880F991F3E
:102C6000880F991F880F991F820F931FFC01E45250
:102C7000FF4F83E080838A81282F30E0C901880FCD
:102C8000991F880F991F880F991F820F931FFC01AE
:102C9000E552FF4F8081282F30E03E832D838D81C8
:102CA0009E818130910531F02D813E812F3F31058C
:102CB000B1F026C08A81282F30E0C901880F991F02
:102CC000880F991F880F991F820F931FFC01E352F1
:102CD000FF4F808191810E9436148C8311C08A81BC
:102CE000282F30E0C901880F991F880F991F880F7E
:102CF000991F820F931FFC01E452FF4F82E08083F3
:102D000019821A828C81882309F42FCF8C81269610
:102D10000FB6F894DEBF0FBECDBFCF91DF910895FF
:102D2000EF92FF920F931F93DF93CF93CDB7DEB750
:102D30000E9430051092590103C180915901282F3A
:102D400030E0C901880F991F820F931F9C01220F49
:102D5000331F220F331F820F931FFC01EA59FE4FCE
:102D60008081813009F0E7C080915901482F50E0FF
:102D7000CA01880F991F840F951F9C01220F331FD2
:102D8000220F331F820F931FFC01E959FE4F8081F0
:102D90009181A281B3817C018D010894E11CF11C19
:102DA000011D111DCA01880F991F840F951F9C01D9
:102DB000220F331F220F331F820F931FFC01E9598B
:102DC000FE4FE082F1820283138380915901282F04
:102DD00030E0C901880F991F820F931F9C01220FB9
:102DE000331F220F331F820F931FFC01E959FE4F3F
:102DF000E080F1800281138180915901282F30E019
:102E0000C901880F991F820F931F9C01220F331F46
:102E1000220F331F820F931FFC01E25AFE4F2081C5
:102E2000318142815381C801B7010E94C61BDC0178
:102E3000CB010097A105B10579F580915901282FA3
:102E400030E0C901880F991F820F931F9C01220F48
:102E5000331F220F331F820F931FFC01E45AFE4FD2
:102E6000808161E00E94470A80915901282F30E05B
:102E7000C901880F991F820F931F9C01220F331FD6
:102E8000220F331F820F931FFC01E959FE4F10825E
:102E90001182128213824FC080915901282F30E095
:102EA000C901880F991F820F931F9C01220F331FA6
:102EB000220F331F820F931FFC01E959FE4FE08060
:102EC000F1800281138180915901282F30E0C901DE
:102ED000880F991F820F931F9C01220F331F220F0F
:102EE000331F820F931FFC01EE59FE4F2081318169
:102EF00042815381C801B7010E94C61BDC01CB018E
:102F00000097A105B105B9F480915901282F30E04F
:102F1000C901880F991F820F931F9C01220F331F35
:102F2000220F331F820F931FFC01E45AFE4F808152
:102F300060E00E94470A809159018F5F8093590198
:102F400080915901813208F4F8CE0E942205CF9178
:102F5000DF911F910F91FF90EF900895DF93CF9332
:102F6000CDB7DEB729970FB6F894DEBF0FBECDBF41
:102F70006E837F838887998719821A821B821C82BD
:102F80001D8280E890E0A0E0B0E080935101909332
:102F90005201A0935301B093540180916A00882399
:102FA000D9F48091510190915201A0915301B091B7
:102FB00054012FEF30E040E050E0BC01CD010E9411
:102FC000A71BDC01CB018093550190935601A09380
:102FD0005701B093580140C080916A008130D9F404
:102FE0008091510190915201A0915301B0915401EF
:102FF0002FEF3FEF40E050E0BC01CD010E94A71B46
:10300000DC01CB018093550190935601A0935701A9
:10301000B093580121C080916A008230D9F4809128
:10302000510190915201A0915301B09154012FEFA1
:1030300030E040E050E0BC01CD010E94A71BDC0164
:10304000CB018093550190935601A0935701B09303
:10305000580102C085E189832091510130915201CC
:1030600040915301509154018E819F81A885B9856B
:1030700082179307A407B50708F450C020915501A3
:103080003091560140915701509158018E819F8196
:10309000A885B985281739074A075B0708F43EC099
:1030A00089818823D9F58AE690E00E9449008091C1
:1030B0006A009E012E5F3F4FB9010E943F038E813F
:1030C0009F81A885B98528EE33E040E050E0BC013F
:1030D000CD010E94A71BDC01CB012A813B814C81E1
:1030E0005D81BC01CD010E94C61BDA01C90190932C
:1030F0005B0180935A0120916A0080E996E1622F7A
:103100000E949003898380916A0020915A01309136
:103110005B01B9010E945A02898302C085EA898352
:103120008981882321F481E08093300102C01092CC
:103130003001898129960FB6F894DEBF0FBECDBF4E
:10314000CF91DF910895DF93CF930F92CDB7DEB784
:10315000198280913001813041F480916A000E948F
:10316000CE0289831092300102C082EA898389816C
:103170000F90CF91DF910895CF92DF92EF92FF925F
:103180000F931F93DF93CF93CDB7DEB728970FB67A
:10319000F894DEBF0FBECDBF8A836B834C830D8353
:1031A0001E832F833887198280913001813009F086
:1031B000D4C08C81853608F0CDC08A81803208F079
:1031C000C6C08A81282F30E0C901880F991F820F5D
:1031D000931F9C01220F331F220F331F820F931F57
:1031E000FC01E45AFE4F8B8180838A81282F30E0D6
:1031F000C901880F991F820F931F9C01220F331F53
:10320000220F331F820F931FFC01E35AFE4F8C8164
:1032100080838A81282F30E0C901880F991F820F8F
:10322000931F9C01220F331F220F331F820F931F06
:10323000FC01E25AFE4F8D819E81AF81B88580836B
:103240009183A283B3838A81C82EDD248A81282FAB
:1032500030E0C901880F991F820F931F9C01220F34
:10326000331F220F331F820F931FFC01E35AFE4FBF
:103270008081E82EFF2400E010E08A81282F30E0D2
:10328000C901880F991F820F931F9C01220F331FC2
:10329000220F331F820F931FFC01E25AFE4F208141
:1032A000318142815381C801B7010E94A71BDC0113
:1032B000CB0124E630E040E050E0BC01CD010E94AB
:1032C000C61BDA01C901AC01BD01C601880F991FF7
:1032D0008C0D9D1D9C01220F331F220F331F820F67
:1032E000931FFC01EE59FE4F408351836283738329
:1032F0008A81282F30E0C901880F991F820F931F00
:103300009C01220F331F220F331F820F931FFC01DA
:10331000E959FE4F10821182128213828A81282F6E
:1033200030E0C901880F991F820F931F9C01220F63
:10333000331F220F331F820F931FFC01EA59FE4FE8
:1033400010828B8161E00E940E09898308C089EA9E
:10335000898305C087EA898302C082EA89838981DB
:10336000882361F48A81882F90E0FC01EF5CFE4F96
:1033700081E080838A818F5F8A8307C08A81882F5A
:1033800090E0FC01EF5CFE4F1082898128960FB619
:10339000F894DEBF0FBECDBFCF91DF911F910F918B
:1033A000FF90EF90DF90CF900895DF93CF9300D000
:1033B000CDB7DEB78A8319828A81803208F04FC088
:1033C0008A81882F90E0FC01EF5CFE4F8081813084
:1033D00009F042C08A81282F30E0C901880F991F67
:1033E000820F931F9C01220F331F220F331F820F66
:1033F000931FFC01EA59FE4F81E080838A81282FC8
:1034000030E0C901880F991F820F931F9C01220F82
:10341000331F220F331F820F931FFC01E959FE4F08
:1034200010821182128213828A81282F30E0C90112
:10343000880F991F820F931F9C01220F331F220FA9
:10344000331F820F931FFC01E45AFE4F808161E01D
:103450000E94470A898305C084EA898302C089EAF9
:10346000898389810F900F90CF91DF910895DF9329
:10347000CF9300D0CDB7DEB78A8319828A8180329C
:1034800008F04EC08A81882F90E0FC01EF5CFE4F6F
:103490008081813009F041C08A81282F30E0C90144
:1034A000880F991F820F931F9C01220F331F220F39
:1034B000331F820F931FFC01EA59FE4F10828A814D
:1034C000282F30E0C901880F991F820F931F9C019C
:1034D000220F331F220F331F820F931FFC01E95964
:1034E000FE4F10821182128213828A81282F30E0CF
:1034F000C901880F991F820F931F9C01220F331F50
:10350000220F331F820F931FFC01E45AFE4F80816C
:1035100060E00E94470A898305C084EA898302C06B
:1035200089EA898389810F900F90CF91DF91089567
:10353000DF93CF93CDB7DEB78CE061E00E940E0938
:103540008DE061E00E940E098EE061E00E940E09AC
:103550008FE061E00E940E0980E0CF91DF91089535
:10356000DF93CF93CDB7DEB78CE00E943B0D80E0B8
:10357000CF91DF910895DF93CF93CDB7DEB78DE084
:103580000E943B0D80E0CF91DF910895DF93CF93B0
:10359000CDB7DEB78EE00E943B0D80E0CF91DF918A
:1035A0000895DF93CF93CDB7DEB78FE00E943B0D38
:1035B00080E0CF91DF910895DF93CF93CDB7DEB751
:1035C0000E94981A68EE73E080E090E00E94B30ECB
:1035D000CF91DF910895DF93CF93CDB7DEB780EB26
:1035E0009AE14AEF50E060E070E02FEF0E94BB0FDD
:1035F0008BEB9AE144EF51E060E070E02FEF0E9426
:10360000BB0F86EC9AE148EE53E060E070E02FEFEC
:103610000E94BB0F81ED9AE140ED57E060E070E061
:1036200021E00E94BB0F0E946211FDCFDF93CF9378
:10363000CDB7DEB70E94981A68EE73E080E090E0A4
:103640000E945912CF91DF9108950F93DF93CF938A
:10365000CDB7DEB780EB9AE14AEF50E060E070E072
:1036600020E00FEF0E946A138BEB9AE144EF51E0E8
:1036700060E070E021E00FEF0E946A1386EC9AE1AF
:1036800048EE53E060E070E022E00FEF0E946A1322
:1036900081ED9AE140ED57E060E070E023E00FEF4C
:1036A0000E946A130E94AA15CF91DF910F9108958D
:1036B0000F931F93DF93CF93CDB7DEB768EE73E020
:1036C00080E090E00E94AE1780E06CE042E304E608
:1036D00010E020E030E00E94BC1881E06DE046E49C
:1036E00004E610E020E030E00E94BC1882E06EE0CA
:1036F00042E302E310E020E030E00E94BC1883E0E7
:103700006FE04EE102E310E020E030E00E94BC18E0
:10371000CF91DF911F910F910895DF93CF93CDB794
:10372000DEB780E00E94D51981E00E94D51982E0C1
:103730000E94D51983E00E94D519FFCFDF93CF9364
:10374000CDB7DEB70E94581B0E948D1BFFCF629F32
:10375000D001739FF001829FE00DF11D649FE00D89
:10376000F11D929FF00D839FF00D749FF00D659FEA
:10377000F00D9927729FB00DE11DF91F639FB00DE9
:10378000E11DF91FBD01CF0111240895A1E21A2EF8
:10379000AA1BBB1BFD010DC0AA1FBB1FEE1FFF1FF5
:1037A000A217B307E407F50720F0A21BB30BE40B45
:1037B000F50B661F771F881F991F1A9469F760958C
:1037C0007095809590959B01AC01BD01CF01089546
:0437D000F894FFCF9B
:0E37D4006D01050000910105000001050000D7
:00000001FF
