:100000000C940B080C9428080C9428080C942808CD
:100010000C9428080C9428080C9428080C942808A0
:100020000C9428080C9428080C9428080C94280890
:100030000C9428080C9428080C9428080C94280880
:100040000C94E2140C9428080C9428080C942808AA
:100050000C942808000000000000000000000000D0
:100060000000000000000000000000000000000090
:100070000000000000000000000000000000000080
:100080000000000000000000000000000000F83F39
:1000900007F83F07F83F07000000000000000000DD
:1000A0000000000000000000000000000000000050
:1000B00000007C00007C00007C00000000000000CC
:1000C000007C00007C00007C0000000000000000BC
:1000D00000000000000000600000630000E3070073
:1000E000FF07F07F00F0630000E30700FF07F07FE9
:1000F00000F0630000630000030000000000000047
:10010000000000C00303E00706600606300C3E3026
:10011000FE1FF83F063C180630380360F00300E08D
:1001200001000000000000000000E0030CF0070EDA
:1001300030860730C603F0E700E07B0000DC0700F4
:10014000EF0F80630CE0610C70E00F30C00700001F
:100150000000000000F000F0FC01F88F039C070392
:100160000C0F030C1D038CB903F8E00170F00100C3
:10017000F803001C0300080200000000000000005B
:10018000000000000000000000007C00007C000077
:100190007C000000000000000000000000000000E3
:1001A000000000000000000000000000000080FFD0
:1001B00001E0FF0FF8001F3C003C0E0070060060DD
:1001C00002004000000000000000000000000000ED
:1001D00000000000000000000000000200400600D7
:1001E000600E00703C003CF8001FE0FF0780FF013C
:1001F00000000000000000000000000000000010EF
:100200000200380700300300E00100FE1F00FE1F5F
:1002100000E0010030030038070010020000000079
:10022000000000000000000000001800001800009E
:100230001800001800C0FF03C0FF030018000018DA
:10024000000018000018000000000000000000007E
:100250000000000000000000300000300080390085
:10026000801F00801F000007000000000000000049
:10027000000000000000000000000000000000007E
:1002800000180000180000180000180000180000F6
:10029000180000180000000000000000000000002E
:1002A000000000000000000000000000000000014D
:1002B0000080030080030000010000000000000037
:1002C000000000000000000000000000000000002E
:1002D0003000003C00000F00C00300F000003C00B4
:1002E000000F00C00300F000003C00000C00000004
:1002F0000000000000000000803F00E0FF0070F000
:1003000001389803180C03180E03180603388303EA
:10031000F0C101E0FF00803F00000000000000008D
:1003200000000000002000037000033000031800EC
:1003300003F8FF03F8FF03000003000003000003BD
:10034000000000000000000000000000000000208D
:10035000000370800338C0031860031830031818B6
:1003600003380E03F00703E003030000030000005E
:100370000000000000000000003000031800031817
:100380000603180603180603380703F08D01E0FC86
:100390000100780000000000000000000000700074
:1003A000007800006E00806700C061007060003857
:1003B0006000F8FF03F8FF030060000060000060C9
:1003C00000000000000000000000000000F807032B
:1003D000F80703180603180603180603180603187F
:1003E0008E0118FC000078000000000000000000F2
:1003F00000000000000000007F00C0FF01608C01D1
:10040000300603380603180603180603188E011871
:10041000FC01007800000000000000000000000067
:100420000018000018000018000318C00318F0019D
:10043000183C00180F00D80300F800003800000036
:100440000000000000000000000000E0F000F0F9F3
:1004500001389F03180F03180603180603180F032B
:10046000389F03F0F901E0F00000000000000000F8
:100470000000000000C00300F00703300E03180C5A
:1004800003180C03188C03188C0130E600F07F0071
:10049000C01F00000000000000000000000000007D
:1004A000000000000000000080830380830380833D
:1004B0000300000000000000000000000000000039
:1004C00000000000000000000000000000003000FC
:1004D000003080833980831F80831F000007000065
:1004E000000000000000000000000000000000000C
:1004F000000000000800001C00003E000036000064
:10050000630080C100C08001E08003400001000062
:100510000000000000000000000000000000660075
:1005200000660000660000660000660000660000CD
:100530006600006600006600006600000000000023
:1005400000000000000000400001E08003C08001C6
:1005500080C100006300003600003E00001C000067
:100560000800000000000000000000000000000083
:10057000000000000C00000C80030C9E03189E037A
:10058000180600F00700E003000000000000000073
:10059000000000000000FC0380FF1FE0033870F83B
:1005A0007118FE630C0F630C03630CE3610CFF63B3
:1005B0000C0763388033F0FF19C07F000000000093
:1005C000000000C00300F803007F00E06700F06057
:1005D00000386000F06000E06700007F0000F80372
:1005E00000C003000000000000000000000000F850
:1005F000FF03F8FF0318060318060318060318067E
:1006000003380703F08D01E0FC01007000000000DA
:10061000000000000000803F00C0FF00E0E001306B
:100620008001388003180003180003180003180025
:1006300003180003308001000000000000000000EB
:10064000F8FF03F8FF03180003180003180003184D
:10065000000318800330800170E001E0FF00803F5C
:1006600000000000000000000000000000F8FF0390
:10067000F8FF0318060318060318060318060318E4
:100680000603180603000000000000000000000040
:1006900000000000000000F8FF03F8FF0318060048
:1006A00018060018060018060018060018060000B4
:1006B0000000000000000000000000000000003FFB
:1006C00000C0FF00E0E001308001380003180003A3
:1006D00018060318060318060318FE0330FE01006F
:1006E0000000000000000000F8FF03F8FF03000610
:1006F00000000600000600000600000600000600DC
:10070000F8FF03F8FF0300000000000000000000F5
:100710000000000000180003180003180003F8FF91
:1007200003F8FF031800031800031800030000007B
:1007300000000000000000000000000000000018A1
:100740008001180003180003180003180003188024
:1007500003F8FF01F8FF00000000000000000000A7
:10076000000000000000000000F8FF03F8FF030095
:100770000400001F00803B00E0F00070C0013880E2
:10078000030800020000000000000000000000005C
:10079000000000000000F8FF03F8FF030000030062
:1007A000000300000300000300000300000300003A
:1007B00000000000000000000000F8FF03F8FF0345
:1007C000780000C00300000F00001800000F00C0F8
:1007D0000300700000F8FF03F8FF030000000000B2
:1007E00000000000000000F8FF03F8FF03380000DD
:1007F000E00100800700003C0000F000008003F8EA
:10080000FF03F8FF03000000000000000000803F2D
:1008100000E0FF0070C001388003180003180003D7
:1008200018000338800370C001E0FF00803F000023
:100830000000000000000000000000F8FF03F8FFC7
:1008400003181800181800181800181800181800B5
:10085000300C00F00700C0030000000000000000A2
:100860000000803F00E0FF0070C0013880031800E6
:100870000F18001F18003B38803370C031E0FF3084
:10088000803F18000018000000000000000000F881
:10089000FF03F8FF03180C00180C00180C00181CBC
:1008A00000387600F0E701E081030000020000005C
:1008B000000000000000E08101F003033003031892
:1008C0000603180603180C03180C03189C0130F8D3
:1008D0000100F00000000000000000000000000027
:1008E000180000180000180000180000F8FF03F8B6
:1008F000FF03180000180000180000180000000096
:1009000000000000000000000000F8FF00F8FF01F8
:100910000080030000030000030000030000030048
:100920008001F8FF01F87F000000000000000000D7
:1009300000000000380000F80300C01F0000FE00A7
:1009400000E00300800300E00300FE00C00F00F899
:100950000100380000000000000000000000F83F27
:1009600000F8FF0300E00300F803007E00000F0022
:10097000007E0000F80300C003F8FF03F83F00000A
:10098000000000000000000208000318C00378E027
:1009900000E07900C01F00000F00C01F00E07900D8
:1009A00078E00018C0030800030000020000000007
:1009B0000000080000380000F00000C00300000F35
:1009C0000000FC0300FC03000F00C00300F0000067
:1009D00038000008000000000000000018000318A4
:1009E000800318E003183803181C03180703980342
:1009F00003F8000378000318000300000300000060
:100A0000000000000000000000000000000000FCEA
:100A1000FF7FFCFF7F0C00600C00600C00600C008E
:100A20006000000000000000000000000000000066
:100A30000C00003C0000F00000C00300000F0000AC
:100A40003C0000F00000C00300000F00003C00006C
:100A50003000000000000000000000000000000066
:100A60000C00600C00600C00600C0060FCFF7FFC60
:100A7000FF7F0000000000000000000000000000F8
:100A800000000000000000000300800300E0000000
:100A9000380000180000380000E00000800300006B
:100AA00003000000000000000000000000600000E3
:100AB00060000060000060000060000060000060F6
:100AC0000000600000600000600000600000600046
:100AD0000060000060000000000000000000040052
:100AE000000C00001C000038000030000020000056
:100AF00000000000000000000000000000000000F6
:100B0000000000000000E00100F3038039038019B9
:100B10000380190380190380990100FF0300FE037D
:100B2000000000000000000000000000000000FCC9
:100B3000FF01FCFF030003030003038001038001A6
:100B40000380010380830100FF00007E000000009D
:100B5000000000000000000000007C0000FE01001A
:100B600087018083038001038001038001038001EA
:100B700003008301000000000000000000000000EE
:100B800000FC0000FE01008303800103800103805C
:100B9000010380810180C101FCFF03FCFF03000011
:100BA00000000000000000000000007C0000FF01C9
:100BB000009B0180190380190380190380190380A9
:100BC0001B03001F03001E000000000000000000C7
:100BD0000000000000030000030000030000030009
:100BE000F0FF03F8FF031C03000C03000C03000CD0
:100BF000000000000000000000000000000000C035
:100C00001C00EE3F003F73803B63803163803163A3
:100C1000803163803B63801F33800F3E80011E0064
:100C20000000000000000000000000FCFF03FCFFCB
:100C30000300070000030080010080010080030022
:100C400080FF0300FE030000000000000000000021
:100C500000000000008001038001038001039C016B
:100C6000039CFF039CFF030000030000030000033C
:100C700000000000000000000000000000000080F4
:100C800001308001608001608001608001609C0112
:100C9000709CFF3F9CFF1F00000000000000000050
:100CA000000000000000000000FCFF03FCFF030048
:100CB0001800003C0000760000E70080C30180813E
:100CC000038000030000020000000000000000009C
:100CD0000000000C00030C00030C00030C0003FCDC
:100CE000FF03FCFF030000030000030000030000FB
:100CF0000000000000000000000000000080FF0372
:100D000080FF0300030080010080FF0300FF030059
:100D1000030080010080FF0300FF030000000000CB
:100D20000000000000000080FF0380FF03000700B8
:100D300080030080010080010080030080FF030029
:100D4000FE03000000000000000000000000007C26
:100D50000000FE0100830180010380010380010384
:100D600080010380810300830100FF00007C0000FC
:100D7000000000000000000000000080FF7F80FFF6
:100D80007F0003038001038001038001038083014E
:100D900000FF01007E0000000000000000000000D5
:100DA000000000FC0000FE010083038001038001BD
:100DB0000380010380810180C10180FF7F80FF7F6C
:100DC00000000000000000000000000000000080A3
:100DD000FF0380FF03000300000300800100800187
:100DE00000800100800700000700000000000000F4
:100DF000000000000000000000008601000F0380DA
:100E0000190380190380110380310380310300E34B
:100E10000100E000000000000000000000000000F1
:100E2000800100800100800100F8FF00F8FF0180D0
:100E3000810380010380010380010380010300001E
:100E40000000000000000000000000000080FF0023
:100E500080FF030080030000030000030080030004
:100E6000C00180FF0380FF030000000000000000BD
:100E700000000000800100800F00003E0000F8002C
:100E800000C00300800300C00300F800003E0080A3
:100E90000F0080010000000000000000000080FF43
:100EA0000000FF0300800300E003007800003C0026
:100EB00000780000E00300800300FF0380FF0000D3
:100EC0000000000000000000800002800103808319
:100ED0000300CF01007C00003800007C0000EE0120
:100EE00080830380010380000200000000000000F6
:100EF0000060800160800F60003E7000F83800C024
:100F00001F00000F00E00300FC00801F00800300B2
:100F10000000000000000000000000000000008051
:100F2000010380810380C103806103803903800D48
:100F3000038007038003038001030000000000001A
:100F40000000000000000000000018000018000071
:100F50003C00F0FF1FF8E73F1C00700C00600C0025
:100F60006000000000000000000000000000000021
:100F7000000000000000000000000000FFFF7FFFF5
:100F8000FF7F0000000000000000000000000000E3
:100F90000000000000000000000000000000000051
:100FA0000C00600C00601C0070F8E73FF0FF1F00B1
:100FB0003C000018000018000000000000000000C5
:100FC00000000000003000003C00000C00000C009D
:100FD000001C00003800007000006000006000008D
:100FE0007800001800000000000000F8FF01080071
:100FF00001080001080001F8FF01000000000000E6
:1010000000000000000000000000000000000000E0
:1010100000000000000011241FBECFE5D8E0DEBFB5
:10102000CDBF10E0A0E6B0E0EAE5F1E602C0059031
:101030000D92A03CB107D9F717E0A0ECB0E001C0D9
:101040001D92AD30B107E1F70E940F300C94AB3028
:101050000C940000EF92FF920F931F937B018C0181
:1010600020E030E040E05FE40E942A0B88238CF00F
:10107000C801B70120E030E040E05FE40E94A2092F
:101080000E948A0B9B01AC012050304040405048E8
:1010900006C0C801B7010E948A0B9B01AC01B901CF
:1010A000CA011F910F91FF90EF900895A0E0B0E06A
:1010B000ECE5F8E00C947430DC012B01FA019C9112
:1010C000923008F439C1EB018881823008F433C1D1
:1010D000943069F4843009F02FC111969C911197D6
:1010E0008981981709F428C1ACEAB0E025C18430A1
:1010F00009F421C18230A9F4923009F01DC19A018E
:10110000AD0188E0EA010990AE01E90109929E0172
:101110008150C1F7E201898111969C9189238183D5
:1011200008C1923009F407C112962D903C90139794
:10113000EB018A819B811496AD90BD90CD90DC909F
:101140001797EC80FD800E811F819101281B390BC0
:10115000B90137FF04C066277727621B730B603223
:1011600071050CF061C0121613066CF537014801C9
:10117000062E04C096948794779467940A94D2F7C5
:1011800021E030E040E050E004C0220F331F441F54
:10119000551F6A95D2F721503040404050402E21D3
:1011A0003F2140235123211531054105510521F0EF
:1011B00021E030E040E050E079018A01E628F7289C
:1011C000082919293CC0232BD1F1260E371E3501E1
:1011D0004601062E04C096948794779467940A94E7
:1011E000D2F721E030E040E050E004C0220F331F8E
:1011F000441F551F6A95D2F721503040404050405F
:101200002A213B214C215D21211531054105510544
:1012100021F021E030E040E050E059016A01A628C9
:10122000B728C828D9280BC0821593052CF01C01BB
:10123000AA24BB24650103C0EE24FF248701119674
:101240009C91D20111968C91981709F445C099236D
:1012500039F0A80197012A193B094C095D0906C01C
:10126000A60195012E193F09400B510B57FD08C0EF
:1012700011823382228224833583468357831DC0A3
:1012800081E081833382228288279927DC01821BB7
:10129000930BA40BB50B84839583A683B7830DC0F2
:1012A000220F331F441F551F2483358346835783E2
:1012B0008281938101979383828324813581468142
:1012C0005781DA01C9010197A109B1098F5F9F4FC9
:1012D000AF4FBF4328F30BC0918333822282EA0CC5
:1012E000FB1C0C1D1D1DE482F5820683178383E021
:1012F0008083248135814681578157FF1AC0C901F7
:10130000AA2797FDA095BA2F81709070A070B07039
:101310005695479537952795822B932BA42BB52B64
:1013200084839583A683B783828193810196938377
:101330008283DF0101C0D201CD01CDB7DEB7E2E18A
:101340000C949030A0E2B0E0E8EAF9E00C94803030
:1013500069837A838B839C832D833E834F83588755
:10136000E9E0EE2EF12CEC0EFD1ECE010196B70148
:101370000E94B30C8E010F5E1F4FCE010596B8017F
:101380000E94B30C8A8991E089278A8BC701B80132
:10139000AE01475E5F4F0E9456080E94DE0BA0968A
:1013A000E6E00C949C30A0E2B0E0E9EDF9E00C94AA
:1013B000803069837A838B839C832D833E834F8324
:1013C0005887F9E0EF2EF12CEC0EFD1ECE010196B0
:1013D000B7010E94B30C8E010F5E1F4FCE01059620
:1013E000B8010E94B30CC701B801AE01475E5F4F60
:1013F0000E9456080E94DE0BA096E6E00C949C30FA
:10140000A0E2B0E0E6E0FAE00C94743069837A83FD
:101410008B839C832D833E834F835887CE01019617
:10142000BE01675F7F4F0E94B30CCE010596BE01DF
:101430006F5E7F4F0E94B30C9985923088F0898946
:101440008230C8F0943019F4823051F404C08430F2
:1014500029F4923081F48CEA90E0C6C0923049F4CD
:1014600020E09A858A89981321E02A87CE0109967F
:10147000BBC0823049F420E09A858A89981321E024
:101480002A8BCE014196B0C02D843E844F8458886B
:101490006D887E888F88988CEE24FF248701AA248B
:1014A000BB24650140E050E060E070E0E0E0F0E087
:1014B000C10181709070892BE9F0E60CF71C081DC2
:1014C000191D9A01AB012A0D3B1D4C1D5D1D80E0CD
:1014D00090E0A0E0B0E0E614F7040805190520F458
:1014E00081E090E0A0E0B0E0BA01A901480F591FE7
:1014F0006A1F7B1FAA0CBB1CCC1CDD1C97FE08C0FE
:1015000081E090E0A0E0B0E0A82AB92ACA2ADB2A4C
:101510003196E032F10549F0660C771C881C991C65
:101520005694479437942794C3CFFA85EA892B8938
:101530003C898B859C85280F391F2E5F3F4F17C034
:10154000CA0181709070892B61F016950795F79408
:10155000E79480E090E0A0E0B0E8E82AF92A0A2BBE
:101560001B2B76956795579547952F5F3F4F77FDD6
:10157000E7CF0CC0440F551F661F771F17FD416052
:10158000EE0CFF1C001F111F21503040403090E036
:10159000590790E0690790E4790760F32B8F3C8F3F
:1015A000DB01CA018F779070A070B0708034910514
:1015B000A105B10561F447FD0AC0E114F10401057C
:1015C000110529F0405C5F4F6F4F7F4F40781A8EB6
:1015D000FE1711F081E08A8F4D8F5E8F6F8F78A399
:1015E00083E0898FCE0149960E94DE0BA096E2E14E
:1015F0000C949030A8E1B0E0E0E0FBE00C94803087
:1016000069837A838B839C832D833E834F835887A2
:1016100089E0E82EF12CEC0EFD1ECE010196B701FB
:101620000E94B30C8E010F5E1F4FCE010596B801CC
:101630000E94B30C8985823040F08989823028F07D
:10164000C701B8010E942B0D01C08FEF6896E6E03C
:101650000C949C30A8E1B0E0E0E3FBE00C94803017
:1016600069837A838B839C832D833E834F83588742
:1016700089E0E82EF12CEC0EFD1ECE010196B7019B
:101680000E94B30C8E010F5E1F4FCE010596B8016C
:101690000E94B30C8985823040F08989823028F01D
:1016A000C701B8010E942B0D01C08FEF6896E6E0DC
:1016B0000C949C30A8E1B0E0E0E6FBE00C948030B4
:1016C00069837A838B839C832D833E834F835887E2
:1016D00089E0E82EF12CEC0EFD1ECE010196B7013B
:1016E0000E94B30C8E010F5E1F4FCE010596B8010C
:1016F0000E94B30C8985823040F08989823028F0BD
:10170000C701B8010E942B0D01C081E06896E6E098
:101710000C949C30ACE0B0E0E0E9FBE00C94843049
:1017200069837A838B839C83CE010196BE016B5FB4
:101730007F4F0E94B30C8D81823061F1823050F175
:10174000843021F48E81882351F12EC02F81388579
:1017500037FD20C06E812F3131051CF06623F9F072
:1017600023C08EE190E0821B930B29853A854B853F
:101770005C8504C056954795379527958A95D2F78D
:101780006623B1F050954095309521953F4F4F4FCE
:101790005F4F0EC020E030E040E050E009C02FEF86
:1017A0003FEF4FEF5FE704C020E030E040E050E85B
:1017B000B901CA012C96E2E00C94A030DF92EF92BE
:1017C000FF920F931F93FC01E480F580068117813F
:1017D000D1808081823048F480E090E0A0E1B0E0E8
:1017E000E82AF92A0A2B1B2BA5C0843009F49FC0D4
:1017F000823021F4EE24FF24870105C0E114F104B6
:101800000105110519F4E0E0F0E096C062817381F2
:101810009FEF623879070CF05BC022E83FEF261B90
:10182000370B2A3131052CF020E030E040E050E069
:101830002AC0B801A701022E04C076956795579576
:1018400047950A94D2F781E090E0A0E0B0E004C0B0
:10185000880F991FAA1FBB1F2A95D2F70197A109CC
:10186000B1098E219F21A023B1230097A105B105C5
:1018700021F081E090E0A0E0B0E09A01AB01282BDC
:10188000392B4A2B5B2BDA01C9018F779070A0703E
:10189000B07080349105A105B10539F427FF09C066
:1018A000205C3F4F4F4F5F4F04C0215C3F4F4F4F75
:1018B0005F4FE0E0F0E02030A0E03A07A0E04A0708
:1018C000A0E45A0710F0E1E0F0E079018A0127C0B6
:1018D0006038710564F5FB01E158FF4FD801C7017D
:1018E0008F779070A070B07080349105A105B1051C
:1018F00039F4E7FE0DC080E490E0A0E0B0E004C061
:101900008FE390E0A0E0B0E0E80EF91E0A1F1B1F75
:1019100017FF05C016950795F794E794319687E071
:1019200016950795F794E7948A95D1F705C0EE24AC
:10193000FF248701EFEFF0E06E2F6795662767952C
:10194000902F9F77D794DD24D7948E2F8695492F9B
:10195000462B582F5D29B701CA011F910F91FF90A7
:10196000EF90DF900895FC01DB01408151812281DD
:10197000622F6F7770E0221F2227221F9381892F09
:10198000880F822B282F30E0991F9927991F1196D5
:101990009C93119721153105A9F541155105610554
:1019A000710511F482E037C082E89FEF13969C9393
:1019B0008E9312979A01AB0167E0220F331F441FE9
:1019C000551F6A95D1F783E08C930DC0220F331F0A
:1019D000441F551F12968D919C9113970197139652
:1019E0009C938E931297203080E0380780E0480760
:1019F00080E4580758F314962D933D934D935C93D0
:101A0000179708952F3F310579F441155105610568
:101A1000710519F484E08C93089564FF03C081E09C
:101A20008C9312C01C9210C02F57304013963C93D9
:101A30002E93129783E08C9387E0440F551F661F07
:101A4000771F8A95D1F7706414964D935D936D93CB
:101A50007C93179708951F93DC01FB019C919230B2
:101A600008F447C08081823008F443C0943051F4B8
:101A700011961C91843099F58181682F70E0611B6B
:101A800071093FC0843021F0923031F48230B9F1D5
:101A90008181882389F12DC011961C911197823084
:101AA000F1F081811817D9F412962D913C9113977A
:101AB000828193818217930794F028173907BCF02D
:101AC00014968D919D910D90BC91A02D248135810E
:101AD00046815781281739074A075B0718F41123F5
:101AE00041F00AC082179307A407B50740F41123F9
:101AF00019F061E070E005C06FEF7FEF02C060E0B9
:101B000070E0CB011F910895DF93CF93CDB7DEB77F
:101B1000AFE5B0E0EFE5F0E0808180688C93CF9195
:101B2000DF910895DF93CF93CDB7DEB7AFE5B0E097
:101B3000EFE5F0E080818F778C93CF91DF9108956E
:101B4000DF93CF9300D000D000D0CDB7DEB78B832A
:101B50006C8381E08A838B81803208F0D6C08C81CF
:101B6000823008F0D2C01A828B8186958695869540
:101B700089838B8187708B838981282F30E03E8316
:101B80002D838D819E818130910509F441C02D8185
:101B90003E81223031052CF48D819E81009771F0B9
:101BA000B4C02D813E812230310509F45BC08D81A6
:101BB0009E818330910509F47FC0A7C08C8181305C
:101BC00099F4AAE3B0E0EAE3F0E040818B81282FAA
:101BD00030E081E090E0022E02C0880F991F0A9445
:101BE000E2F7842B8C9391C0AAE3B0E0EAE3F0E043
:101BF00040818B81282F30E081E090E0022E02C0EE
:101C0000880F991F0A94E2F7809584238C937DC0F6
:101C10008C81813099F4A7E3B0E0E7E3F0E0408104
:101C20008B81282F30E081E090E0022E02C0880FE7
:101C3000991F0A94E2F7842B8C9367C0A7E3B0E066
:101C4000E7E3F0E040818B81282F30E081E090E0F5
:101C5000022E02C0880F991F0A94E2F78095842310
:101C60008C9353C08C81813099F4A4E3B0E0E4E319
:101C7000F0E040818B81282F30E081E090E0022E5F
:101C800002C0880F991F0A94E2F7842B8C933DC001
:101C9000A4E3B0E0E4E3F0E040818B81282F30E062
:101CA00081E090E0022E02C0880F991F0A94E2F7AB
:101CB000809584238C9329C08C81813099F4A1E391
:101CC000B0E0E1E3F0E040818B81282F30E081E05B
:101CD00090E0022E02C0880F991F0A94E2F7842B2D
:101CE0008C9313C0A1E3B0E0E1E3F0E040818B818D
:101CF000282F30E081E090E0022E02C0880F991F6B
:101D00000A94E2F7809584238C938A8126960FB6F5
:101D1000F894DEBF0FBECDBFCF91DF910895DF9362
:101D2000CF9300D000D00F92CDB7DEB78A836B83FC
:101D300081E089838A81843098F519828A81282FED
:101D400030E03D832C838C819D8181309105D1F0E1
:101D50002C813D81223031052CF48C819D810097AE
:101D600061F01EC02C813D812230310581F08C81D3
:101D70009D818330910581F013C0EAE3F0E08B810F
:101D800080830EC0E7E3F0E08B81808309C0E4E349
:101D9000F0E08B81808304C0E1E3F0E08B818083FD
:101DA00089810F900F900F900F900F90CF91DF913E
:101DB0000895DF93CF9300D000D000D0CDB7DEB729
:101DC0008B836C8381E08A838B81803208F0D6C05C
:101DD0008C81823008F0D2C01A828B8186958695DC
:101DE000869589838B8187708B838981282F30E04A
:101DF0003E832D838D819E818130910509F441C000
:101E00002D813E81223031052CF48D819E810097F9
:101E100071F0B4C02D813E812230310509F45BC0E0
:101E20008D819E818330910509F47FC0A7C08C818C
:101E3000813099F4ABE3B0E0EBE3F0E040818B81DB
:101E4000282F30E081E090E0022E02C0880F991F19
:101E50000A94E2F7842B8C9391C0ABE3B0E0EBE300
:101E6000F0E040818B81282F30E081E090E0022E6D
:101E700002C0880F991F0A94E2F7809584238C93FF
:101E80007DC08C81813099F4A8E3B0E0E8E3F0E014
:101E900040818B81282F30E081E090E0022E02C04B
:101EA000880F991F0A94E2F7842B8C9367C0A8E3EC
:101EB000B0E0E8E3F0E040818B81282F30E081E062
:101EC00090E0022E02C0880F991F0A94E2F78095D5
:101ED00084238C9353C08C81813099F4A5E3B0E0C6
:101EE000E5E3F0E040818B81282F30E081E090E055
:101EF000022E02C0880F991F0A94E2F7842B8C935C
:101F00003DC0A5E3B0E0E5E3F0E040818B81282F00
:101F100030E081E090E0022E02C0880F991F0A9401
:101F2000E2F7809584238C9329C08C81813099F4C9
:101F3000A2E3B0E0E2E3F0E040818B81282F30E0C3
:101F400081E090E0022E02C0880F991F0A94E2F708
:101F5000842B8C9313C0A2E3B0E0E2E3F0E0408175
:101F60008B81282F30E081E090E0022E02C0880FA4
:101F7000991F0A94E2F7809584238C938A81269690
:101F80000FB6F894DEBF0FBECDBFCF91DF9108959D
:101F9000DF93CF9300D000D00F92CDB7DEB78A8306
:101FA0006B8381E089838A81843098F519828A81E4
:101FB000282F30E03D832C838C819D8181309105D9
:101FC000D1F02C813D81223031052CF48C819D8112
:101FD000009761F01EC02C813D812230310581F0D7
:101FE0008C819D818330910581F013C0EBE3F0E09B
:101FF0008B8180830EC0E8E3F0E08B81808309C091
:10200000E5E3F0E08B81808304C0E2E3F0E08B81C4
:10201000808389810F900F900F900F900F90CF9138
:10202000DF910895DF93CF93CDB7DEB727970FB633
:10203000F894DEBF0FBECDBF8B837D836C8381E0C0
:102040008A838B81803208F079C01A828B818695D1
:102050008695869589838B8187708B838981282FCC
:1020600030E03F832E834E815F814130510559F12D
:102070008E819F818230910534F42E813F8121151C
:10208000310569F05BC04E815F814230510579F1C5
:102090008E819F818330910509F43DC04FC0E9E3F3
:1020A000F0E08081282F30E08B81882F90E0A9011B
:1020B00002C0559547958A95E2F7CA018170EC8177
:1020C000FD8180833BC0E6E3F0E08081282F30E093
:1020D0008B81882F90E0A90102C0559547958A957C
:1020E000E2F7CA018170EC81FD81808327C0E3E3C0
:1020F000F0E08081282F30E08B81882F90E0A901CB
:1021000002C0559547958A95E2F7CA018170EC8126
:10211000FD81808313C0E0E3F0E08081282F30E070
:102120008B81882F90E0A90102C0559547958A952B
:10213000E2F7CA018170EC81FD8180838A81279654
:102140000FB6F894DEBF0FBECDBFCF91DF910895DB
:10215000DF93CF9300D000D000D0CDB7DEB78A8315
:102160007C836B8381E089838A818430D8F51982EE
:102170008A81282F30E03E832D838D819E8181309E
:102180009105E1F02D813E81223031052CF48D81C5
:102190009E81009761F026C02D813E81223031055D
:1021A000A1F08D819E8183309105B1F01BC0E9E3E0
:1021B000F0E08081EB81FC81808314C0E6E3F0E0F5
:1021C0008081EB81FC8180830DC0E3E3F0E08081BE
:1021D000EB81FC81808306C0E0E3F0E08081EB814D
:1021E000FC818083898126960FB6F894DEBF0FBEEE
:1021F000CDBFCF91DF910895DF93CF9300D000D072
:102200000F92CDB7DEB78B8381E08A838B818032DA
:1022100008F073C01A828B8186958695869589838E
:102220008B8187708B838981282F30E03D832C83BD
:102230008C819D818130910541F12C813D8122303D
:1022400031052CF48C819D81009761F056C02C8162
:102250003D812230310561F18C819D818330910572
:10226000D1F14BC0ABE3B0E0EBE3F0E040818B8118
:10227000282F30E081E090E0022E02C0880F991FE5
:102280000A94E2F7842B8C9338C0A8E3B0E0E8E32B
:10229000F0E040818B81282F30E081E090E0022E39
:1022A00002C0880F991F0A94E2F7842B8C9325C0F3
:1022B000A5E3B0E0E5E3F0E040818B81282F30E03A
:1022C00081E090E0022E02C0880F991F0A94E2F785
:1022D000842B8C9312C0A2E3B0E0E2E3F0E04081F3
:1022E0008B81282F30E081E090E0022E02C0880F21
:1022F000991F0A94E2F7842B8C938A810F900F9098
:102300000F900F900F90CF91DF910895DF93CF93AF
:1023100000D000D0CDB7DEB78A8381E089838A817F
:10232000843098F519828A81282F30E03C832B83F2
:102330008B819C8181309105D1F02B813C812230B1
:1023400031052CF48B819C81009761F01EC02B819C
:102350003C812230310581F08B819C818330910555
:1023600081F013C0EBE3F0E08FEF80830EC0E8E371
:10237000F0E08FEF808309C0E5E3F0E08FEF80832A
:1023800004C0E2E3F0E08FEF808389810F900F902B
:102390000F900F90CF91DF910895DF93CF9300D0EE
:1023A00000D00F92CDB7DEB78B8381E08A838B811B
:1023B000803208F073C01A828B8186958695869547
:1023C00089838B8187708B838981282F30E03D83BF
:1023D0002C838C819D818130910541F12C813D813F
:1023E000223031052CF48C819D81009761F056C01C
:1023F0002C813D812230310561F18C819D818330BA
:102400009105D1F14BC0ABE3B0E0EBE3F0E04081EC
:102410008B81282F30E081E090E0022E02C0880FEF
:10242000991F0A94E2F784278C9338C0A8E3B0E0A0
:10243000E8E3F0E040818B81282F30E081E090E0FC
:10244000022E02C0880F991F0A94E2F784278C930A
:1024500025C0A5E3B0E0E5E3F0E040818B81282FC3
:1024600030E081E090E0022E02C0880F991F0A94AC
:10247000E2F784278C9312C0A2E3B0E0E2E3F0E03D
:1024800040818B81282F30E081E090E0022E02C055
:10249000880F991F0A94E2F784278C938A810F9002
:1024A0000F900F900F900F90CF91DF910895DF93D1
:1024B000CF9300D000D0CDB7DEB78A8381E0898387
:1024C0008A81843008F03FC019828A81282F30E049
:1024D0003C832B838B819C8181309105E9F02B819A
:1024E0003C81223031052CF48B819C81009761F076
:1024F0002AC02B813C8122303105B1F08B819C8137
:1025000083309105C9F01FC0ABE3B0E0EBE3F0E02E
:10251000808180958C9317C0A8E3B0E0E8E3F0E0F9
:10252000808180958C930FC0A5E3B0E0E5E3F0E0F7
:10253000808180958C9307C0A2E3B0E0E2E3F0E0F5
:10254000808180958C9389810F900F900F900F90D0
:10255000CF91DF910895DF93CF93CDB7DEB7279763
:102560000FB6F894DEBF0FBECDBF9B838A8319825E
:102570008A819B81009709F401C1EA81FB818081F6
:10258000883008F0F8C0EA81FB81808160E00E9419
:10259000A00DA7E2B0E0E7E2F0E08081807E8C93BE
:1025A000A7E2B0E0E7E2F0E09081EA81FB81808180
:1025B000892B8C93EA81FB818181282F30E03F8336
:1025C0002E838E819F818034910551F02E813F8131
:1025D000203C310511F18E819F81009781F02CC044
:1025E000A7E2B0E0E7E2F0E080818F778C93A7E28A
:1025F000B0E0E7E2F0E0808180648C931FC0A7E246
:10260000B0E0E7E2F0E080818F778C93A7E2B0E062
:10261000E7E2F0E080818C9311C0A7E2B0E0E7E24E
:10262000F0E080818F778C93A7E2B0E0E7E2F0E002
:102630008081806C8C9302C08CE28983EA81FB816B
:1026400082818093B400EA81FB818281282F30E06F
:102650003D832C838C819D81009769F02C813D8185
:102660002130310581F4A7E2B0E0E7E2F0E08081BB
:1026700080628C930AC0A7E2B0E0E7E2F0E08081DC
:102680008F7D8C9302C08CE28983EA81FB818381F8
:10269000883090F4A6E2B0E0E6E2F0E08081887F46
:1026A0008C93A6E2B0E0E6E2F0E09081EA81FB8163
:1026B0008381892B8C9302C08AE28983EA81FB8122
:1026C00084818093B500EA81FB818481882351F461
:1026D0000E94840DA6E2B0E0E6E2F0E0808188602E
:1026E0008C930FC0EA81FB818481813041F4A6E2A2
:1026F000B0E0E6E2F0E08081877F8C9302C08CE25C
:102700008983EA81FB818581813EC0F4A6E2B0E045
:10271000E6E2F0E0808180628C93A0E5B0E0E0E545
:10272000F0E080818C93A0E5B0E0E0E5F0E09081FE
:10273000EA81FB818581892B8C930FC0EA81FB8123
:1027400085818F3F41F4A6E2B0E0E6E2F0E08081CF
:102750008F7D8C9302C08CE289838981882381F4E8
:10276000A6E2B0E0E6E2F0E0808180688C9381E050
:102770008093C00005C089E2898302C082E089831A
:10278000898127960FB6F894DEBF0FBECDBFCF91DB
:10279000DF910895DF93CF930F92CDB7DEB7198203
:1027A0008091C000813081F4A6E2B0E0E6E2F0E082
:1027B00080818F778C931092C0008FEF8093B4004C
:1027C0008FEF8093B50002C08EE2898389810F90DC
:1027D000CF91DF910895DF93CF9300D0CDB7DEB7CF
:1027E0008A8319828091C0008130D1F48A81883037
:1027F000A0F48A8160E00E94A00DA7E2B0E0E7E2C9
:10280000F0E08081807E8C93A7E2B0E0E7E2F0E028
:1028100090818A81892B8C9305C089E2898302C0CB
:102820008EE2898389810F900F90CF91DF91089577
:10283000DF93CF930F92CDB7DEB719828091C0009E
:10284000813041F4A6E2B0E0E6E2F0E0808180640D
:102850008C9302C08EE2898389810F90CF91DF91A2
:102860000895DF93CF930F92CDB7DEB71982809191
:10287000C000813041F4A6E2B0E0E6E2F0E0808101
:102880008F7B8C9302C08EE2898389810F90CF91D8
:10289000DF910895DF93CF93CDB7DEB727970FB6BB
:1028A000F894DEBF0FBECDBF9B838A8319828091CF
:1028B000B500282F30E03F832E838E819F810097C3
:1028C00009F459C02E813F812130310509F051C0F2
:1028D000E6E2F0E0808182958F70882F90E0817031
:1028E00090700097A9F38091B400282F30E03D83C9
:1028F0002C838C819D81009731F02C813D8121308A
:102900003105A1F02CC0E4E2F0E08081282F30E016
:10291000E5E2F0E08081882F90E0982F8827822BD5
:10292000932BEA81FB81918380831BC0E4E2F0E07A
:1029300080818295869586958370282F30E0E5E228
:10294000F0E08081882F90E0880F991F880F991FF1
:10295000822B932BEA81FB819183808302C08CE2DE
:102960008983A6E2B0E0E6E2F0E0808180618C93AA
:1029700002C08CE28983898127960FB6F894DEBF66
:102980000FBECDBFCF91DF910895DF93CF9300D0DD
:102990000F92CDB7DEB79B838A8319828A819B8190
:1029A000009739F08A819B819093C2008093C10087
:1029B00002C082E0898389810F900F900F90CF91A0
:1029C000DF9108951F920F920FB60F9211242F934B
:1029D0003F934F935F936F937F938F939F93AF93A7
:1029E000BF93EF93FF93DF93CF93CDB7DEB7809183
:1029F000C1009091C200009769F02091C100309110
:102A0000C200E4E2F0E08081E5E2F0E09081692F2D
:102A1000F9010995CF91DF91FF91EF91BF91AF91AE
:102A20009F918F917F916F915F914F913F912F91E6
:102A30000F900FBE0F901F901895DF93CF930F92BA
:102A4000CDB7DEB78983A2E3B0E0E2E3F0E08081B6
:102A50008F7B8C93A2E3B0E0E2E3F0E080818062C0
:102A60008C93E5E3F0E089818083A2E3B0E0E2E3C8
:102A7000F0E080818F7E8C93A2E3B0E0E2E3F0E0AF
:102A8000808180618C93A2E3B0E0E2E3F0E080819A
:102A900080648C930F90CF91DF910895DF93CF9353
:102AA0000F92CDB7DEB78983A2E3B0E0E2E3F0E0B6
:102AB00080818F7B8C93A2E3B0E0E2E3F0E0808141
:102AC0008F7D8C93E5E3F0E089818083A2E3B0E021
:102AD000E2E3F0E080818F7E8C93A2E3B0E0E2E35A
:102AE000F0E0808180618C93A2E3B0E0E2E3F0E06B
:102AF000808180648C930F90CF91DF910895DF9354
:102B0000CF9300D000D00F92CDB7DEB789836A8310
:102B10005C834B8389810E944E154BC0A2E3B0E0D9
:102B2000E2E3F0E080818F7B8C93A2E3B0E0E2E30C
:102B3000F0E0808180628C93A5E3B0E0EB81FC81C2
:102B400080819181892F99278C938B819C8102961A
:102B50009C838B83A2E3B0E0E2E3F0E080818F7E90
:102B60008C93A2E3B0E0E2E3F0E0808180618C939B
:102B7000A5E3B0E0EB81FC81808191818C938B8116
:102B80009C8102969C838B83A2E3B0E0E2E3F0E0B9
:102B900080818F7E8C93A2E3B0E0E2E3F0E080815D
:102BA00080618C93A2E3B0E0E2E3F0E08081806496
:102BB0008C938A818D838D81882311F081E08D83B0
:102BC0008D819A8191509A83882309F0A7CF0F9025
:102BD0000F900F900F900F90CF91DF910895DF939A
:102BE000CF9300D000D000D0CDB7DEB79A838983D1
:102BF0007C836B835E834D832091B6003091B70058
:102C000089819A818217930708F008C12091B80042
:102C10003091B9008B819C818217930708F0FEC028
:102C20008AE20E944E15A2E3B0E0E2E3F0E0808188
:102C30008F7B8C93A2E3B0E0E2E3F0E080818062DE
:102C40008C93E5E3F0E089819A81892F992780832D
:102C5000A2E3B0E0E2E3F0E080818F7E8C93A2E318
:102C6000B0E0E2E3F0E0808180618C93E5E3F0E0A6
:102C700089818083A2E3B0E0E2E3F0E080818F7E8F
:102C80008C93A2E3B0E0E2E3F0E0808180618C937A
:102C9000A2E3B0E0E2E3F0E0808180648C93A2E301
:102CA000B0E0E2E3F0E080818F7B8C93A2E3B0E0C0
:102CB000E2E3F0E0808180628C93E5E3F0E08981DB
:102CC0009A81892F99278083A2E3B0E0E2E3F0E0C4
:102CD00080818F7E8C93A2E3B0E0E2E3F0E080811C
:102CE00080618C93E5E3F0E089818083A2E3B0E02A
:102CF000E2E3F0E080818F7E8C93A2E3B0E0E2E338
:102D0000F0E0808180618C93A2E3B0E0E2E3F0E048
:102D1000808180648C938BE20E944E15A2E3B0E028
:102D2000E2E3F0E080818F7B8C93A2E3B0E0E2E30A
:102D3000F0E0808180628C93E5E3F0E08B819C8100
:102D4000892F99278083A2E3B0E0E2E3F0E080815D
:102D50008F7E8C93A2E3B0E0E2E3F0E080818061BB
:102D60008C93E5E3F0E08B818083A2E3B0E0E2E3C3
:102D7000F0E080818F7E8C93A2E3B0E0E2E3F0E0AC
:102D8000808180618C93A2E3B0E0E2E3F0E0808197
:102D900080648C93A2E3B0E0E2E3F0E080818F7B7B
:102DA0008C93A2E3B0E0E2E3F0E0808180628C9358
:102DB000E5E3F0E08B819C81892F99278083A2E352
:102DC000B0E0E2E3F0E080818F7E8C93A2E3B0E09C
:102DD000E2E3F0E0808180618C93E5E3F0E08B81B9
:102DE0008083A2E3B0E0E2E3F0E080818F7E8C9309
:102DF000A2E3B0E0E2E3F0E0808180618C93A2E3A3
:102E0000B0E0E2E3F0E0808180648C939E012B5F70
:102E10003F4F8CE261E0A9010E947F1526960FB614
:102E2000F894DEBF0FBECDBFCF91DF910895DF9341
:102E3000CF93CDB7DEB728970FB6F894DEBF0FBE9D
:102E4000CDBF9A8389837C836B835E834D83388770
:102E50002F838AE20E944E15A2E3B0E0E2E3F0E0A5
:102E600080818F7B8C93A2E3B0E0E2E3F0E080818D
:102E700080628C93E5E3F0E089819A81892F99271C
:102E80008083A2E3B0E0E2E3F0E080818F7E8C9368
:102E9000A2E3B0E0E2E3F0E0808180618C93E5E3BF
:102EA000F0E089818083A2E3B0E0E2E3F0E080819A
:102EB0008F7E8C93A2E3B0E0E2E3F0E0808180615A
:102EC0008C93A2E3B0E0E2E3F0E0808180648C9335
:102ED000A2E3B0E0E2E3F0E080818F7B8C93A2E399
:102EE000B0E0E2E3F0E0808180628C93E5E3F0E023
:102EF0008D819E81892F99278083A2E3B0E0E2E350
:102F0000F0E080818F7E8C93A2E3B0E0E2E3F0E01A
:102F1000808180618C93E5E3F0E08D818083A2E382
:102F2000B0E0E2E3F0E080818F7E8C93A2E3B0E03A
:102F3000E2E3F0E0808180618C93A2E3B0E0E2E321
:102F4000F0E0808180648C938BE20E944E15A2E3B6
:102F5000B0E0E2E3F0E080818F7B8C93A2E3B0E00D
:102F6000E2E3F0E0808180628C93E5E3F0E08B8126
:102F70009C81892F99278083A2E3B0E0E2E3F0E00F
:102F800080818F7E8C93A2E3B0E0E2E3F0E0808169
:102F900080618C93E5E3F0E08B818083A2E3B0E075
:102FA000E2E3F0E080818F7E8C93A2E3B0E0E2E385
:102FB000F0E0808180618C93A2E3B0E0E2E3F0E096
:102FC000808180648C93A2E3B0E0E2E3F0E0808152
:102FD0008F7B8C93A2E3B0E0E2E3F0E0808180623B
:102FE0008C93E5E3F0E08F819885892F9927808382
:102FF000A2E3B0E0E2E3F0E080818F7E8C93A2E375
:10300000B0E0E2E3F0E0808180618C93E5E3F0E002
:103010008F818083A2E3B0E0E2E3F0E080818F7EE5
:103020008C93A2E3B0E0E2E3F0E0808180618C93D6
:10303000A2E3B0E0E2E3F0E0808180648C93289624
:103040000FB6F894DEBF0FBECDBFCF91DF910895CC
:103050000F93DF93CF93CDB7DEB76B970FB6F8948E
:10306000DEBF0FBECDBF9C8B8B8B7E8B6D8B4F8B52
:10307000288F098F8F89282F30E03B8F2A8F4A8D28
:103080005B8D4130510509F47AC16A8D7B8D6230C8
:10309000710509F4E3C28A8D9B8D009709F027C45E
:1030A00082E18E8780E28D872091B6003091B70053
:1030B0008E85882F90E0281B390B8B899C892817D7
:1030C000390708F414C42091B8003091B9008D85F7
:1030D000882F90E0281B390B8D899E892817390786
:1030E00008F405C48E85282F30E08B899C89820FD7
:1030F000931FAC01415050408D85282F30E08D89C1
:103100009E89820F931FFC0131978B899C892D89A1
:103110003E89B9019F010E9417171A8A26C1198A90
:103120001DC1188A13C1888D882F90E09C01205200
:1031300030408D85869586958695882F90E0A901EB
:10314000489F9001499F300D589F300D11248E8566
:10315000882F90E0289FA001299F500D389F500D87
:1031600011248889282F30E08D858695869586954F
:10317000882F90E0BC01269FC001279F900D369FAD
:10318000900D11249A01280F391F8A89882F90E009
:10319000820F931F8C5A9F4F9C878B87EB85FC85F2
:1031A00084918A878A858F87898D882309F096C0C4
:1031B0008F85282F30E08989882F90E0A90102C0EF
:1031C000559547958A95E2F7CA01817090708823DA
:1031D00009F442C0A2E3B0E0E2E3F0E080818F7B3B
:1031E0008C93A2E3B0E0E2E3F0E0808180628C9314
:1031F000E5E3F0E08091050790910607892F992774
:103200008083A2E3B0E0E2E3F0E080818F7E8C93E4
:10321000A2E3B0E0E2E3F0E0808180618C93E5E33B
:10322000F0E080910507909106078083A2E3B0E06B
:10323000E2E3F0E080818F7E8C93A2E3B0E0E2E3F2
:10324000F0E0808180618C93A2E3B0E0E2E3F0E003
:10325000808180648C9377C0A2E3B0E0E2E3F0E089
:1032600080818F7B8C93A2E3B0E0E2E3F0E0808189
:1032700080628C93E5E3F0E0809107079091080766
:10328000892F99278083A2E3B0E0E2E3F0E0808118
:103290008F7E8C93A2E3B0E0E2E3F0E08081806176
:1032A0008C93E5E3F0E08091070790910807808315
:1032B000A2E3B0E0E2E3F0E080818F7E8C93A2E3B2
:1032C000B0E0E2E3F0E0808180618C93A2E3B0E0C3
:1032D000E2E3F0E0808180648C9335C08F85282FF5
:1032E00030E08989882F90E0B90102C07595679513
:1032F0008A95E2F7CB0181709070882321F188894B
:10330000282F30E08B899C89B901680F791F8A8941
:10331000882F90E09C01220F331F220F331F220FB2
:10332000331F8989882F90E0820F931F9C018D891C
:103330009E89280F391F4091050750910607CB0140
:10334000B9010E94EF1588898F5F888B98898E85D7
:10335000981708F4E8CE89898F5F898B898988302E
:1033600008F4DFCE8A898F5F8A8B8D85982F96959A
:10337000969596958A89891708F4D1CEB8C28EE0C1
:103380008E8788E18D872091B6003091B7008E85B9
:10339000882F90E0281B390B8B899C8928173907C7
:1033A00008F4A5C22091B8003091B9008D85882F0E
:1033B00090E0281B390B8D899E892817390708F45E
:1033C00096C28E85282F30E08B899C89820F931FAF
:1033D000AC01415050408D85282F30E08D899E8969
:1033E000820F931FFC0131978B899C892D893E891F
:1033F000B9019F010E9417171A8A26C1198A1DC197
:10340000188A13C1888D882F90E09C01205230408B
:103410008D85869586958695882F90E0A901489F91
:103420009001499F300D589F300D11248E85882FB3
:1034300090E0289FA001299F500D389F500D112426
:103440008889282F30E08D85869586958695882FEA
:1034500090E0BC01269FC001279F900D369F900DE4
:1034600011249A01280F391F8A89882F90E0820F32
:10347000931F8B5A9F4F99878887E885F985849198
:103480008F838F818F87898D882309F096C08F85E0
:10349000282F30E08989882F90E0A90102C0559536
:1034A00047958A95E2F7CA0181709070882309F4E4
:1034B00042C0A2E3B0E0E2E3F0E080818F7B8C9336
:1034C000A2E3B0E0E2E3F0E0808180628C93E5E388
:1034D000F0E08091050790910607892F9927808356
:1034E000A2E3B0E0E2E3F0E080818F7E8C93A2E380
:1034F000B0E0E2E3F0E0808180618C93E5E3F0E00E
:1035000080910507909106078083A2E3B0E0E2E393
:10351000F0E080818F7E8C93A2E3B0E0E2E3F0E004
:10352000808180618C93A2E3B0E0E2E3F0E08081EF
:1035300080648C9377C0A2E3B0E0E2E3F0E08081A6
:103540008F7B8C93A2E3B0E0E2E3F0E080818062C5
:103550008C93E5E3F0E08091070790910807892FAD
:1035600099278083A2E3B0E0E2E3F0E080818F7EE0
:103570008C93A2E3B0E0E2E3F0E0808180618C9381
:10358000E5E3F0E080910707909108078083A2E3CC
:10359000B0E0E2E3F0E080818F7E8C93A2E3B0E0C4
:1035A000E2E3F0E0808180618C93A2E3B0E0E2E3AB
:1035B000F0E0808180648C9335C08F85282F30E0C7
:1035C0008989882F90E0B90102C0759567958A9521
:1035D000E2F7CB0181709070882321F18889282F30
:1035E00030E08B899C89B901680F791F8A89882FFF
:1035F00090E09C01220F331F220F331F220F331F35
:103600008989882F90E0820F931F9C018D899E8964
:10361000280F391F4091050750910607CB01B901CA
:103620000E94EF1588898F5F888B98898E859817FF
:1036300008F4E8CE89898F5F898B8989883008F4FE
:10364000DFCE8A898F5F8A8B8D85982F9695969588
:1036500096958A89891708F4D1CE49C188E08E876A
:1036600080E18D872091B6003091B7008E85882F3C
:1036700090E0281B390B8B899C892817390708F49F
:1036800036C12091B8003091B9008D85882F90E027
:10369000281B390B8D899E892817390708F427C103
:1036A0008E85282F30E08B899C89820F931FAC0177
:1036B000415050408D85282F30E08D899E89820FA2
:1036C000931FFC0131978B899C892D893E89B90113
:1036D0009F010E941717888D8052888F898D8823BB
:1036E00009F0BAC01A8AB3C0888D882F90E09C0177
:1036F00022953295307F3227207F32278A89882F82
:1037000090E0820F931F8B5E9F4E9E838D83ED8191
:10371000FE8184918C838C818F87198A91C08F85DB
:10372000882F90E081709070882309F442C0A2E352
:10373000B0E0E2E3F0E080818F7B8C93A2E3B0E025
:10374000E2E3F0E0808180628C93E5E3F0E0809139
:10375000050790910607892F99278083A2E3B0E09F
:10376000E2E3F0E080818F7E8C93A2E3B0E0E2E3BD
:10377000F0E0808180618C93E5E3F0E080910507C3
:10378000909106078083A2E3B0E0E2E3F0E080815D
:103790008F7E8C93A2E3B0E0E2E3F0E08081806171
:1037A0008C93A2E3B0E0E2E3F0E0808180648C934C
:1037B00041C0A2E3B0E0E2E3F0E080818F7B8C9334
:1037C000A2E3B0E0E2E3F0E0808180628C93E5E385
:1037D000F0E08091070790910807892F992780834F
:1037E000A2E3B0E0E2E3F0E080818F7E8C93A2E37D
:1037F000B0E0E2E3F0E0808180618C93E5E3F0E00B
:1038000080910707909108078083A2E3B0E0E2E38C
:10381000F0E080818F7E8C93A2E3B0E0E2E3F0E001
:10382000808180618C93A2E3B0E0E2E3F0E08081EC
:1038300080648C938F8586958F8789898F5F898B2C
:103840008989883008F46BCF8A898F5F8A8B8A894F
:10385000803108F449CF4BC01A8A45C0888D882F23
:1038600090E09C0122953295307F3227207F3227CD
:103870008A89882F90E0820F931F8B5E9F4E9B83D7
:103880008A83EA81FB818491898389818F87198A60
:1038900024C08F85882F90E0817090708823B9F0C4
:1038A0008989282F30E08B899C89B901680F791F9D
:1038B0008A89282F30E08D899E89280F391F4091F1
:1038C000050750910607CB01B9010E94EF158F85BE
:1038D00086958F8789898F5F898B89898830C8F21F
:1038E0008A898F5F8A8B8A89803108F4B7CF6B967B
:1038F0000FB6F894DEBF0FBECDBFCF91DF910F9111
:103900000895DF93CF93CDB7DEB7AA970FB6F8949B
:10391000DEBF0FBECDBFA2E3B0E0E2E3F0E0808106
:1039200080648C93A2E3B0E0E2E3F0E08081886001
:103930008C93A2E3B0E0E2E3F0E0808180618C93BD
:10394000A2E3B0E0E2E3F0E0808180688C9380E065
:1039500090E0A8E4B2E48FA398A7A9A7BAA76FA1A3
:1039600078A589A59AA520E030E04AEF54E40E94AA
:10397000000ADC01CB018BA39CA3ADA3BEA36BA16A
:103980007CA18DA19EA120E030E040E85FE30E9491
:103990005A0B88232CF481E090E09AA389A33FC0BE
:1039A0006BA17CA18DA19EA120E03FEF4FE757E4E2
:1039B0000E94FA0A18164CF56FA178A589A59AA558
:1039C00020E030E040E251E40E94000ADC01CB013B
:1039D000BC01CD010E942A08DC01CB019AA389A376
:1039E0000FC088EC90E098A38F8F8F8D98A10197DE
:1039F000F1F798A38F8F89A19AA101979AA389A320
:103A000089A19AA1009769F714C06BA17CA18DA12F
:103A10009EA10E942A08DC01CB019AA389A389A157
:103A20009AA19E8F8D8F8D8D9E8D0197F1F79E8F20
:103A30008D8FA2E3B0E0E2E3F0E080818F778C939A
:103A400080E090E0A8E4B2E4898F9A8FAB8FBC8FBE
:103A5000698D7A8D8B8D9C8D20E030E04AEF54E4A7
:103A60000E94000ADC01CB018D8B9E8BAF8BB88F3F
:103A70006D897E898F89988D20E030E040E85FE392
:103A80000E945A0B88232CF481E090E09C8B8B8B56
:103A90003FC06D897E898F89988D20E03FEF4FE789
:103AA00057E40E94FA0A18164CF5698D7A8D8B8DB1
:103AB0009C8D20E030E040E251E40E94000ADC01ED
:103AC000CB01BC01CD010E942A08DC01CB019C8BFB
:103AD0008B8B0FC088EC90E09A8B898B89899A89AF
:103AE0000197F1F79A8B898B8B899C8901979C8B25
:103AF0008B8B8B899C89009769F714C06D897E89AF
:103B00008F89988D0E942A08DC01CB019C8B8B8BBE
:103B10008B899C89988B8F878F8598890197F1F77E
:103B2000988B8F87A2E3B0E0E2E3F0E080818068C9
:103B30008C9380E090E0A8E4B2E48B879C87AD870B
:103B4000BE876B857C858D859E8520E030E04AEFC1
:103B500054E40E94000ADC01CB018F839887A98777
:103B6000BA876F81788589859A8520E030E040E8C2
:103B70005FE30E945A0B88232CF481E090E09E833F
:103B80008D833FC06F81788589859A8520E03FEFDE
:103B90004FE757E40E94FA0A18164CF56B857C85AE
:103BA0008D859E8520E030E040E251E40E94000ACD
:103BB000DC01CB01BC01CD010E942A08DC01CB0154
:103BC0009E838D830FC088EC90E09C838B838B81D8
:103BD0009C810197F1F79C838B838D819E81019756
:103BE0009E838D838D819E81009769F714C06F81BC
:103BF000788589859A850E942A08DC01CB019E83FD
:103C00008D838D819E819A83898389819A81019791
:103C1000F1F79A838983AA960FB6F894DEBF0FBE98
:103C2000CDBFCF91DF910895DF93CF93CDB7DEB7AE
:103C300086E30E944E1588E20E941D1580EE91E0F9
:103C40009093B7008093B60080E491E09093B90020
:103C50008093B800CF91DF910895DF93CF93CDB7D4
:103C6000DEB76C970FB6F894DEBF0FBECDBFA1E3F1
:103C7000B0E0E1E3F0E0808180618C93A1E3B0E00B
:103C8000E1E3F0E0808180628C93A1E3B0E0E1E3C6
:103C9000F0E0808180648C93A1E3B0E0E1E3F0E0A8
:103CA000808188608C93A1E3B0E0E1E3F0E0808163
:103CB00080688C93E4E3F0E08FEF80830E94811CA6
:103CC00081E10E944E1580E090E0A8E4B2E4898F83
:103CD0009A8FAB8FBC8F698D7A8D8B8D9C8D20E0F8
:103CE00030E04AEF54E40E94000ADC01CB018D8BE6
:103CF0009E8BAF8BB88F6D897E898F89988D20E0E0
:103D000030E040E85FE30E945A0B88232CF481E006
:103D100090E09C8B8B8B3FC06D897E898F89988DBD
:103D200020E03FEF4FE757E40E94FA0A18164CF5DF
:103D3000698D7A8D8B8D9C8D20E030E040E251E4DE
:103D40000E94000ADC01CB01BC01CD010E942A08BF
:103D5000DC01CB019C8B8B8B0FC088EC90E09A8BA5
:103D6000898B89899A890197F1F79A8B898B8B893D
:103D70009C8901979C8B8B8B8B899C89009769F719
:103D800014C06D897E898F89988D0E942A08DC0174
:103D9000CB019C8B8B8B8B899C89988B8F878F8594
:103DA00098890197F1F7988B8F878AE30E944E15C7
:103DB00085E50E941D1582EC0E944E1584E40E9448
:103DC0001D1585EC0E944E1580E00E941D1580E0B7
:103DD0000E941D1580E00E941D1580E00E941D15A7
:103DE00080EE0E944E158FE00E941D158FE10E940B
:103DF0001D158CE10E941D158CE00E941D158FE0A1
:103E00000E941D1588E00E941D1588E40E941D1562
:103E100088E90E941D1587E30E941D158AE00E9413
:103E20001D1583E10E941D1584E00E941D1581E18E
:103E30000E941D158DE00E941D1580E00E941D1539
:103E400081EE0E944E158FE00E941D1582E30E94B4
:103E50001D158EE20E941D158BE00E941D158DE040
:103E60000E941D1585E00E941D1587E40E941D1506
:103E700085E70E941D1587E30E941D1586E00E94BC
:103E80001D1580E10E941D1583E00E941D1584E22E
:103E90000E941D1580E20E941D1580E00E941D15E4
:103EA00080E20E944E1586E30E944E1588E40E942F
:103EB0001D1589E20E944E1580E090E0A8E4B2E46E
:103EC0008B879C87AD87BE876B857C858D859E851E
:103ED00020E030E04AEF54E40E94000ADC01CB010C
:103EE0008F839887A987BA876F81788589859A8516
:103EF00020E030E040E85FE30E945A0B88232CF476
:103F000081E090E09E838D833FC06F8178858985B5
:103F10009A8520E03FEF4FE757E40E94FA0A18160F
:103F20004CF56B857C858D859E8520E030E040E2F8
:103F300051E40E94000ADC01CB01BC01CD010E94CA
:103F40002A08DC01CB019E838D830FC088EC90E0B2
:103F50009C838B838B819C810197F1F79C838B835E
:103F60008D819E8101979E838D838D819E81009797
:103F700069F714C06F81788589859A850E942A081F
:103F8000DC01CB019E838D838D819E819A83898301
:103F900089819A810197F1F79A8389830E94141E7F
:103FA0006C960FB6F894DEBF0FBECDBFCF91DF91F8
:103FB0000895DF93CF9300D000D000D0CDB7DEB707
:103FC0009E838D838091B6009091B700AC014150E3
:103FD00050408091B8009091B9009C012150304030
:103FE00080E090E060E070E00E9417178CE20E9491
:103FF0004E151C821B8253C01A82198241C0A2E353
:10400000B0E0E2E3F0E080818F7B8C93A2E3B0E04C
:10401000E2E3F0E0808180628C93E5E3F0E08D8163
:104020009E81892F99278083A2E3B0E0E2E3F0E04C
:1040300080818F7E8C93A2E3B0E0E2E3F0E08081A8
:1040400080618C93E5E3F0E08D818083A2E3B0E0B2
:10405000E2E3F0E080818F7E8C93A2E3B0E0E2E3C4
:10406000F0E0808180618C93A2E3B0E0E2E3F0E0D5
:10407000808180648C9389819A8101969A83898357
:104080002091B8003091B90089819A8182179307F5
:1040900008F4B5CF8B819C8101969C838B83209102
:1040A000B6003091B7008B819C818217930708F48A
:1040B000A3CF26960FB6F894DEBF0FBECDBFCF912B
:1040C000DF9108950F931F93DF93CF93CDB7DEB7A2
:1040D0002D970FB6F894DEBF0FBECDBF9C838B83A8
:1040E0007E836D8358874F833A8729871C870B8788
:1040F0002B813C818F819885820F931F9A838983BE
:104100002091B6003091B70089819A81281739072C
:1041100080F48091B6009091B7009A8389832981B9
:104120003A818B819C81A901481B590BCA01988750
:104130008F832D813E8189859A85820F931F9A8373
:1041400089832091B8003091B90089819A8128171C
:10415000390780F48091B8009091B9009A838983DF
:1041600029813A818D819E81A901481B590BCA0181
:104170009A8789872B813C818F819885820F931F35
:10418000AC01415050402D813E8189859A85820F36
:10419000931FFC0131978B819C812D813E81B90158
:1041A0009F010E9417178CE20E944E154AC08F8112
:1041B00098859A838983A2E3B0E0E2E3F0E080810E
:1041C0008F7B8C93A2E3B0E0E2E3F0E08081806239
:1041D0008C93E5E3F0E08B859C85892F992780837C
:1041E000A2E3B0E0E2E3F0E080818F7E8C93A2E373
:1041F000B0E0E2E3F0E0808180618C93E5E3F0E001
:104200008B858083A2E3B0E0E2E3F0E080818F7EE3
:104210008C93A2E3B0E0E2E3F0E0808180618C93D4
:10422000A2E3B0E0E2E3F0E0808180648C938981D6
:104230009A8101979A83898389819A81009709F0ED
:10424000BACF1D8689859A85009711F051E05D8768
:1042500089859A8501979A8789878D85882309F0B2
:10426000A6CF2D960FB6F894DEBF0FBECDBFCF916F
:10427000DF911F910F9108950F931F93DF93CF93B9
:1042800000D0CDB7DEB79A8389832091B6003091F4
:10429000B700E091B800F091B900A981BA8180E03F
:1042A00090E060E070E0A9019F018D010E94622012
:1042B0000F900F90CF91DF911F910F9108950F9361
:1042C0001F93DF93CF93CDB7DEB728970FB6F8943F
:1042D000DEBF0FBECDBF9A8389837C836B835E83F1
:1042E0004D8338872F832091B6003091B7008981A4
:1042F0009A8182179307B0F52091B8003091B900E8
:104300008B819C818217930768F58D819E81009730
:1043100049F12B813C818D819E81820F931F9C01ED
:10432000215030408091B8009091B900281739078A
:1043300050F08091B8009091B9002B813C81821B94
:10434000930B9E838D8389819A812B813C81ED81A2
:10435000FE81AF81B885B90141E050E09F018D0138
:104360000E94622028960FB6F894DEBF0FBECDBF24
:10437000CF91DF911F910F9108950F931F93DF93BA
:10438000CF93CDB7DEB728970FB6F894DEBF0FBE38
:10439000CDBF9A8389837C836B835E834D8338870B
:1043A0002F832091B6003091B70089819A818217BE
:1043B0009307A8F52091B8003091B9008B819C81BA
:1043C0008217930760F58D819E81009741F12981C5
:1043D0003A818D819E81820F931F9C012150304034
:1043E0008091B6009091B7002817390750F080915E
:1043F000B6009091B70029813A81821B930B9E836E
:104400008D8389819A812B813C814D815E81EF81F1
:10441000F885B90121E030E08F010E9462202896E2
:104420000FB6F894DEBF0FBECDBFCF91DF911F91C5
:104430000F9108950F931F93DF93CF93CDB7DEB7FE
:1044400063970FB6F894DEBF0FBECDBF9B878A87F8
:104450007D876C875F874E87398B288B1B8B0A8BF8
:104460002E853F858A859B858217930768F42E8564
:104470003F858A859B85A901481B590BCA019887EE
:104480008F8381E08C830CC02A853B858E859F8538
:10449000A901481B590BCA0198878F838FEF8C8322
:1044A000288939898C859D858217930768F4288926
:1044B00039898C859D85A901481B590BCA019E83AA
:1044C0008D8381E08B830CC02C853D8588899989FB
:1044D000A901481B590BCA019E838D838FEF8B83E3
:1044E0002C853D85888999892817390799F52E8566
:1044F0003F858A859B8582179307B0F42E853F857B
:104500008A859B85A901481B590BCA01AC014F5FE5
:104510005F4F8A859B852C853D85EA89FB89B9019A
:104520009F010E94BD21F7C02A853B858E859F850E
:10453000A901481B590BCA01AC014F5F5F4F8E8523
:104540009F852C853D85EA89FB89B9019F010E94E1
:10455000BD21E1C02A853B858E859F8528173907B7
:1045600099F5288939898C859D8582179307B0F440
:10457000288939898C859D85A901481B590BCA0159
:10458000AC014F5F5F4F8A859B852C853D85EA890D
:10459000FB89B9019F010E945F21BDC02C853D852B
:1045A00088899989A901481B590BCA01AC014F5F41
:1045B0005F4F8A859B8528893989EA89FB89B901FA
:1045C0009F010E945F21A7C02F8138858D819E8128
:1045D0008217930708F050C08F8198859095819538
:1045E0009F4F9A83898319863DC08A859B852C8538
:1045F0003D854A895B89B9010E94EF158C81282F7E
:10460000332727FD30958A859B85820F931F9B87D3
:104610008A878D819E819C01220F331F89819A8117
:10462000820F931F9A83898389819A819923BCF091
:104630008B81282F332727FD30958C859D85820F10
:10464000931F9D878C8729813A818F819885880F58
:10465000991FA901481B590BCA019A83898389852F
:104660008F5F89878985282F30E08F819885821711
:10467000930708F0BACF4FC08D819E8190958195A8
:104680009F4F9A83898319863DC08A859B852C8597
:104690003D854A895B89B9010E94EF158B81282FDE
:1046A000332727FD30958C859D85820F931F9D872D
:1046B0008C878F8198859C01220F331F89819A8175
:1046C000820F931F9A83898389819A819923BCF0F1
:1046D0008C81282F332727FD30958A859B85820F73
:1046E000931F9B878A8729813A818D819E81880FBC
:1046F000991FA901481B590BCA019A83898389858F
:104700008F5F89878985282F30E08D819E81821770
:10471000930708F0BACF63960FB6F894DEBF0FBECA
:10472000CDBFCF91DF911F910F910895DF93CF936C
:10473000CDB7DEB762970FB6F894DEBF0FBECDBF20
:104740009C878B877E876D87588B4F873A8B298B09
:1047500021E030E08F859889A901481B590BCA01D7
:104760009A87898781E090E098878F838F859889E1
:10477000880F991F909581959F4F9E838D831C82F2
:104780001B828F8598899A8389832D853E858F85A5
:104790009889A901480F591F8B859C8529893A89D9
:1047A000BA01A9010E94EF152D853E858F85988954
:1047B000A901481B590B8B859C8529893A89BA0127
:1047C000A9010E94EF152B853C858F859889820F62
:1047D000931F2D853E8549895A89B9010E94EF159D
:1047E0002B853C858F859889A901481B590BCA01E7
:1047F0002D853E8549895A89B9010E94EF15C0C0AF
:1048000089859A85992394F089819A8101979A8361
:1048100089838D819E8102969E838D8329853A8529
:104820008D819E81820F931F9A8789878B819C81BE
:1048300001969C838B838F819885029698878F83BE
:1048400029853A858F819885820F931F9A8789875A
:104850002B853C858B819C81B901680F791F2D8543
:104860003E8589819A81280F391F49895A89CB0150
:10487000B9010E94EF152B853C858B819C81B90184
:10488000681B790B2D853E8589819A81280F391FF8
:1048900049895A89CB01B9010E94EF152B853C85C6
:1048A0008B819C81B901680F791F2D853E85898197
:1048B0009A81281B390B49895A89CB01B9010E9479
:1048C000EF152B853C858B819C81B901681B790B89
:1048D0002D853E8589819A81281B390B49895A8902
:1048E000CB01B9010E94EF152B853C8589819A8106
:1048F000B901680F791F2D853E858B819C81280F1A
:10490000391F49895A89CB01B9010E94EF152B85BE
:104910003C8589819A81B901681B790B2D853E857B
:104920008B819C81280F391F49895A89CB01B90194
:104930000E94EF152B853C8589819A81B901680F0A
:10494000791F2D853E858B819C81281B390B4989D8
:104950005A89CB01B9010E94EF152B853C858981CD
:104960009A81B901681B790B2D853E858B819C81CD
:10497000281B390B49895A89CB01B9010E94EF15CF
:104980002B813C8189819A812817390708F438CF17
:1049900062960FB6F894DEBF0FBECDBFCF91DF9108
:1049A00008950F931F93DF93CF93CDB7DEB765972D
:1049B0000FB6F894DEBF0FBECDBF9C878B877E8776
:1049C0006D87588B4F87298B1B8B0A8B21E030E03A
:1049D0008F859889A901481B590BCA019A87898735
:1049E00081E090E098878F838F859889880F991F41
:1049F000909581959F4F9E838D831C821B828F850E
:104A000098899A8389832D853E858F859889B901F8
:104A1000681B790B8F859889880F991FAC014F5FB0
:104A20005F4F8B859C852A893B890E945F2129C124
:104A300089859A85992394F089819A8101979A832F
:104A400089838D819E8102969E838D8329853A85F7
:104A50008D819E81820F931F9A8789878B819C818C
:104A600001969C838B838F819885029698878F838C
:104A700029853A858F819885820F931F9A87898728
:104A80008989282F30E03D8B2C8B4C895D89413002
:104A9000510509F447C08C899D898230910509F43C
:104AA0007CC02C893D892115310509F0EAC02B8590
:104AB0003C858B819C81B901680F791F2D853E85CE
:104AC00089819A81A901481B590B89819A81880F94
:104AD000991F9C012F5F3F4FEA89FB89CB01BA01E7
:104AE000A9019F010E945F212B853C8589819A81C4
:104AF000B901680F791F2D853E858B819C81A901A5
:104B0000481B590B8B819C81880F991F9C012F5F3B
:104B10003F4FEA89FB89CB01BA01A9019F010E949D
:104B20005F21AFC02B853C858B819C81B901681BBF
:104B3000790B2D853E8589819A81A901481B590BE6
:104B400089819A81880F991F9C012F5F3F4FEA89C5
:104B5000FB89CB01BA01A9019F010E945F212B852E
:104B60003C8589819A81B901681B790B2D853E8529
:104B70008B819C81A901481B590B8B819C81880FDB
:104B8000991F9C012F5F3F4FEA89FB89CB01BA0136
:104B9000A9019F010E945F2174C02B853C858B81F8
:104BA0009C81B901680F791F2D853E8589819A8185
:104BB000A901481B590B89819A81880F991F9C0173
:104BC0002F5F3F4FEA89FB89CB01BA01A9019F0101
:104BD0000E945F212B853C8589819A81B901680FEC
:104BE000791F2D853E858B819C81A901481B590B1E
:104BF0008B819C81880F991F9C012F5F3F4FEA8911
:104C0000FB89CB01BA01A9019F010E945F212B857D
:104C10003C858B819C81B901681B790B2D853E8574
:104C200089819A81A901481B590B89819A81880F32
:104C3000991F9C012F5F3F4FEA89FB89CB01BA0185
:104C4000A9019F010E945F212B853C8589819A8162
:104C5000B901681B790B2D853E858B819C81A9014B
:104C6000481B590B8B819C81880F991F9C012F5FDA
:104C70003F4FEA89FB89CB01BA01A9019F010E943C
:104C80005F212B813C8189819A812817390708F49B
:104C9000CFCE65960FB6F894DEBF0FBECDBFCF91D5
:104CA000DF911F910F9108950F931F93DF93CF937F
:104CB000CDB7DEB72A970FB6F894DEBF0FBECDBFD3
:104CC0009A8389837C836B835E834D8338872F83AC
:104CD0001A87098789819A812B813C814D815E8168
:104CE000E985FA85B9019F010E94BD212B813C8194
:104CF0008F819885820F931FAC014150504089816C
:104D00009A812D813E81E985FA85BA01A9019F0129
:104D10000E94BD2189819A812B813C814F815885D8
:104D2000E985FA85B9019F010E945F2129813A81B5
:104D30008D819E81820F931F01972B813C814F8132
:104D40005885E985FA85B9019F010E945F212A965D
:104D50000FB6F894DEBF0FBECDBFCF91DF911F918C
:104D60000F910895DF93CF9300D000D0CDB7DEB779
:104D70009A8389837C836B838B819C8190930C07BE
:104D800080930B0789819A8190930A078093090782
:104D90000F900F900F900F90CF91DF910895DF93B8
:104DA000CF9300D000D0CDB7DEB79A8389837C83C0
:104DB0006B8389819A8190930607809305078B8185
:104DC0009C8190930807809307070F900F900F9096
:104DD0000F90CF91DF9108950F93DF93CF93CDB7CD
:104DE000DEB729970FB6F894DEBF0FBECDBF9D8307
:104DF0008C836E834F831B828E81282F30E039870E
:104E00002887888599858130910579F028853985AD
:104E10002230310579F088859985009709F06EC0B8
:104E200082E18A8380E2898369C08EE08A8388E197
:104E3000898364C088E08A8380E189835FC0209190
:104E4000B6003091B7008A81882F90E0281B390B7B
:104E50008091090790910A072817390788F4109262
:104E60000A07109209078981282F30E080910B07EB
:104E700090910C07820F931F90930C0780930B0760
:104E80002091B8003091B9008981882F90E0281BCB
:104E9000390B80910B0790910C072817390740F4C4
:104EA00010920C0710920B0710920A071092090734
:104EB0004091090750910A0760910B0770910C0708
:104EC0008B81282F30E08C819D81FC01E20FF31F44
:104ED0002081CA014E810F810E9428188A81282FC3
:104EE00030E08091090790910A07820F931F9093F9
:104EF0000A07809309078B818F5F8B838B81282F13
:104F000030E08C819D81FC01E20FF31F80818823BA
:104F100009F095CF29960FB6F894DEBF0FBECDBF2E
:104F2000CF91DF910F9108950F93DF93CF93CDB77A
:104F3000DEB766970FB6F894DEBF0FBECDBF6F87A2
:104F4000788B898B9A8B4B8B2C8B81E090E0A0E047
:104F5000B0E08B879C87AD87BE871F821886198635
:104F60001A861B821C821D821E828B89282F30E0AC
:104F70003E8B2D8B8D899E898130910571F02D8915
:104F80003E892230310571F08D899E89009771F438
:104F900082E18A8380E2898309C08EE08A8388E186
:104FA000898304C088E08A8380E189832091B600E8
:104FB0003091B7008A81882F90E0281B390B8091AF
:104FC000090790910A072817390788F410920A07F1
:104FD000109209078981282F30E080910B0790916A
:104FE0000C07820F931F90930C0780930B0720915F
:104FF000B8003091B9008981882F90E0281B390BC7
:1050000080910B0790910C072817390740F41092F4
:105010000C0710920B0710920A07109209078F8550
:105020009889A989BA890097A105B105E1F4809111
:10503000090790910A0720910B0730910C07B901DD
:105040004B8920E30C890E9428188A81282F30E0A0
:105050008091090790910A07820F931F90930A0786
:1050600080930907B8C08F859889A989BA89BB231D
:105070000CF05AC08091090790910A0720910B0704
:1050800030910C07B9014B892DE20C890E94281838
:105090008A81282F30E08091090790910A07820FBA
:1050A000931F90930A07809309073EC08F859889C4
:1050B000A989BA892AE030E040E050E0BC01CD0186
:1050C0000E945930DC01CB018F839887A987BA876A
:1050D0008F859889A989BA892AE030E040E050E0BC
:1050E000BC01CD010E945930DA01C9018F87988B2C
:1050F000A98BBA8B8B859C85AD85BE852AE030E077
:1051000040E050E0BC01CD010E9418309B01AC0191
:105110008F819885A985BA85820F931FA41FB51F1B
:105120008B879C87AD87BE878F859889A989BA8927
:105130000097A105B10509F0B9CF43C08B859C85C7
:10514000AD85BE852AE030E040E050E0BC01CD01F5
:105150000E943730DC01CB018B839C83AD83BE83FF
:105160002091090730910A0740910B0750910C07D5
:105170008B81E82FE05DC901BA014B892E2F0C8984
:105180000E9428188A81282F30E080910907909189
:105190000A07820F931F90930A07809309078B8554
:1051A0009C85AD85BE852AE030E040E050E0BC0142
:1051B000CD010E943730DA01C9018B879C87AD870A
:1051C000BE878B859C85AD85BE8581309105A10507
:1051D000B10509F0B3CF66960FB6F894DEBF0FBEE7
:1051E000CDBFCF91DF910F910895DF93CF9300D082
:1051F000CDB7DEB789836A834091C3005091C40064
:105200008981282F30E08A81882F90E0982F882785
:10521000282B392BCA01880F991FFC01EB53FF4F34
:1052200031832083CA0101969093C4008093C30008
:105230008091C3009091C40023E08032920721F452
:105240001092C4001092C3000F900F90CF91DF9185
:105250000895DF93CF93CDB7DEB728970FB6F894B4
:10526000DEBF0FBECDBF9C838B837E836D8358874B
:105270004F831A821982EB81FC8180819181ED81BB
:10528000FE8191838083EF81F8851182108281E015
:1052900090E09A8389832EC0ED81FE814081518107
:1052A00089819A819C01220F331F8B819C81FC0193
:1052B000E20FF31F8081918148175907B0F489816B
:1052C0009A819C01220F331F8B819C81FC01E20F8C
:1052D000F31F80819181ED81FE8191838083EF8135
:1052E000F88589819A819183808389819A81019649
:1052F0009A83898389819A8123E08032920760F2C0
:1053000028960FB6F894DEBF0FBECDBFCF91DF91C8
:105310000895DF93CF93CDB7DEB728970FB6F894F3
:10532000DEBF0FBECDBF9C838B837E836D8358878A
:105330004F831A821982EB81FC8180819181ED81FA
:10534000FE8191838083EF81F8851182108281E054
:1053500090E09A8389832EC0ED81FE814081518146
:1053600089819A819C01220F331F8B819C81FC01D2
:10537000E20FF31F8081918184179507B0F4898132
:105380009A819C01220F331F8B819C81FC01E20FCB
:10539000F31F80819181ED81FE8191838083EF8174
:1053A000F88589819A819183808389819A81019688
:1053B0009A83898389819A8123E08032920760F2FF
:1053C00028960FB6F894DEBF0FBECDBFCF91DF9108
:1053D0000895DF93CF93CDB7DEB72D970FB6F8942E
:1053E000DEBF0FBECDBF998788877B876A875D87C1
:1053F0004C871F821E821D821C821B821A82198288
:105400001A82198253C089819A819C01220F331F0D
:1054100088859985FC01E20FF31F208131818A85FF
:105420009B8528173907B8F589819A8101969C01D7
:10543000220F331F88859985FC01E20FF31F20811D
:1054400031818A859B858217930728F58B81882374
:1054500039F489819A819F838E8381E08B8321C077
:1054600089819A819D838C831B822C813D818E81D1
:105470009F81A901481B590BCA019695879596955E
:105480008795CC01A0E0B0E0EC85FD858083918319
:10549000A283B38312C0EC85FD8510821182128233
:1054A000138289819A8101969A83898389819A815D
:1054B00053E08032950708F4A6CF2D960FB6F894E6
:1054C000DEBF0FBECDBFCF91DF910895AF92BF92E7
:1054D000CF92DF92EF92FF920F931F93DF93CF93C0
:1054E000CDB7DEB760970FB6F894DEBF0FBECDBF65
:1054F00069837A838B839C832D833E834F83588774
:10550000E986FA860B871C87AD86BE86CF86D88A49
:1055100029813A814B815C818D819E81AF81B885E3
:1055200079018A01E81AF90A0A0B1B0B2D8D3E8DB1
:105530004F8D58A18D859E85AF85B889281B390B65
:105540004A0B5B0BC801B7010E9418307B018C012C
:1055500029853A854B855C858D819E81AF81B88593
:10556000281B390B4A0B5B0BC801B7010E9459304D
:10557000DA01C9019C01AD018D859E85AF85B88991
:10558000820F931FA41FB51FBC01CD0160960FB6FB
:10559000F894DEBF0FBECDBFCF91DF911F910F9169
:1055A000FF90EF90DF90CF90BF90AF9008950F9352
:1055B0001F93DF93CF9300D000D0CDB7DEB71C820E
:1055C0001B821A82198281E190E061E370E04BE670
:1055D00051E02EED30E000E010E00E9462208CE30C
:1055E00090E09C838B8310C02B813C8181E190E013
:1055F000B9014BE651E020EE3BE70E94BD218B81D3
:105600009C8144969C838B838B819C8121E0853097
:10561000920750F384E190E09A8389830FC08981D7
:105620009A8161E370E04FED50E020EE3BE70E948D
:105630005F2189819A8144969A83898389819A819D
:1056400021E08936920758F30F900F900F900F903A
:10565000CF91DF911F910F910895DF93CF93CDB735
:10566000DEB78AEB90E00E94AB1285EF98E20E94D1
:10567000C5140E942D1E80E090E00E943C2180E035
:1056800090E060E370E04CE751E020EE37E00E94EC
:10569000BD2180E090E060E171E04CE751E020EE58
:1056A00037E00E94BD218CE791E060E070E040E4CB
:1056B00051E020EE37E00E945F218BE490E068E04B
:1056C00070E00E94B22685EE9FEA60E070E00E94E2
:1056D000CF2680E690E061E041E00E94EC2684E87D
:1056E00091E062E070E00E94B22680EE97E060E018
:1056F00070E00E94CF2681E790E061E041E00E94E7
:10570000EC2682E090E06DE171E00E94B22680EE2E
:1057100097E060E070E00E94CF2688E790E061E0CB
:1057200041E00E94EC2683EC90E06DE171E00E9484
:10573000B22680EE97E060E070E00E94CF268FE70F
:1057400090E061E041E00E94EC2684E891E065E5AC
:1057500070E00E94B22680EE97E060E070E00E9468
:10576000CF2683E890E061E041E00E94EC2684E8E7
:1057700091E065EA70E00E94B22680EE97E060E07A
:1057800070E00E94CF2689E890E061E041E00E944D
:10579000EC2684E891E065EF70E00E94B22680EE8E
:1057A00097E060E070E00E94CF268FE890E061E033
:1057B00041E00E94EC2680E090E06AEF70E00E94F9
:1057C000B22680E098EF60E070E00E94CF2685E985
:1057D00090E061E041E00E94EC2680E090E062ED24
:1057E00070E00E94B22687E990E061E041E00E940B
:1057F000EC2680E090E06AEA70E00E94B22689E937
:1058000090E061E041E00E94EC2680E090E062E8F8
:1058100070E00E94B2268BE990E061E041E00E94D6
:10582000EC2680E090E06AE570E00E94B2268DE907
:1058300090E061E041E00E94EC2680E090E062E3CD
:1058400070E00E94B2268FE990E061E041E00E94A2
:10585000EC260E94D72ACF91DF9108958F929F92D4
:10586000AF92BF92CF92DF92EF92FF920F931F936E
:10587000DF93CF93CDB7DEB7A4970FB6F894DEBF12
:105880000FBECDBF1E8A1D8A188E1F8A1A8E198ED2
:105890001C8A1B8A1A8A198A81E090E09C8F8B8F60
:1058A000188A1F861D8E1E8E1F8E18A21AA219A27C
:1058B0001CA21BA287E00E94EB130E941814CE01C9
:1058C00045960E944A148D899E899C0140E050E0D3
:1058D00000D000D0EDB7FEB7319686E090E0A0E0B2
:1058E000B0E080839183A283B383CA01B90120E031
:1058F00030E040E050E0EE24FF2487016894F2F8A5
:10590000AA24BB2465010E94662A0F900F900F9075
:105910000F90DC01CB019E8B8D8B8CE291E068E0D7
:1059200070E00E94B2268CE291E068E070E044E111
:1059300050E024E130E000E010E00E94622085EEBB
:105940009FEA60E070E00E94CF268D899E89CC019D
:10595000A0E0B0E0BC01CD0141E021E00E9494272D
:1059600086E00E94EB130E941814CE014B960E9411
:105970004A148B8D9C8D9C0140E050E000D000D0FB
:10598000EDB7FEB7319685E090E0A0E0B0E080830F
:105990009183A283B383CA01B90120E030E040E0E3
:1059A00050E0EE24FF2487016894F2F8AA24BB2477
:1059B0006501A3940E94662A0F900F900F900F909C
:1059C000DC01CB019C8F8B8F84E891E060E270E07A
:1059D0000E94B22684E891E060E270E044E150E089
:1059E00024E130E000E010E00E9462208FE190E0CE
:1059F00060E070E00E94CF268B8D9C8DCC01A0E0F2
:105A0000B0E0BC01CD0141E021E00E9494278FE08D
:105A100098E760E070E00E94CF2681EA90E061E0C4
:105A200041E00E94EC268D899E890E94EB131A8A20
:105A3000198A11C00E94181425EC30E089899A89CE
:105A4000880F991F820F931F0E944A1489899A898F
:105A500001969A8B898B89899A8923E080329207F3
:105A600048F31A8A198A3FC089889A8889899A894D
:105A7000880F991FFC01EB53FF4F808191819C019E
:105A800040E050E000D000D0EDB7FEB731968DE891
:105A900093E1A0E0B0E080839183A283B383CA0145
:105AA000B90120E030E040E050E0EE24FF2487011F
:105AB0006894F2F8AA24BB2465010E94662A0F901C
:105AC0000F900F900F90DC01CB019C01C401880F57
:105AD000991FFC01EB53FF4F3183208389899A89F9
